{
  "contractName": "EVoting",
  "abi": [
    {
      "inputs": [
        {
          "internalType": "contract IERC20",
          "name": "_votingToken",
          "type": "address"
        }
      ],
      "stateMutability": "nonpayable",
      "type": "constructor"
    },
    {
      "inputs": [],
      "name": "ReentrancyGuardReentrantCall",
      "type": "error"
    },
    {
      "anonymous": false,
      "inputs": [
        {
          "indexed": true,
          "internalType": "uint256",
          "name": "votingId",
          "type": "uint256"
        },
        {
          "indexed": true,
          "internalType": "uint256",
          "name": "candidateId",
          "type": "uint256"
        },
        {
          "indexed": false,
          "internalType": "string",
          "name": "name",
          "type": "string"
        },
        {
          "indexed": false,
          "internalType": "string",
          "name": "photoUrl",
          "type": "string"
        },
        {
          "indexed": false,
          "internalType": "string",
          "name": "resume",
          "type": "string"
        },
        {
          "indexed": false,
          "internalType": "string",
          "name": "vision",
          "type": "string"
        },
        {
          "indexed": false,
          "internalType": "string",
          "name": "mission",
          "type": "string"
        }
      ],
      "name": "CandidateAdded",
      "type": "event"
    },
    {
      "anonymous": false,
      "inputs": [
        {
          "indexed": true,
          "internalType": "uint256",
          "name": "votingId",
          "type": "uint256"
        },
        {
          "indexed": false,
          "internalType": "uint256",
          "name": "candidatesCount",
          "type": "uint256"
        }
      ],
      "name": "CandidatesInitialized",
      "type": "event"
    },
    {
      "anonymous": false,
      "inputs": [
        {
          "indexed": true,
          "internalType": "address",
          "name": "admin",
          "type": "address"
        },
        {
          "indexed": true,
          "internalType": "address",
          "name": "votingToken",
          "type": "address"
        }
      ],
      "name": "ContractDeployed",
      "type": "event"
    },
    {
      "anonymous": false,
      "inputs": [
        {
          "indexed": true,
          "internalType": "uint256",
          "name": "votingId",
          "type": "uint256"
        },
        {
          "indexed": true,
          "internalType": "address",
          "name": "voter",
          "type": "address"
        },
        {
          "indexed": true,
          "internalType": "uint256",
          "name": "candidateId",
          "type": "uint256"
        }
      ],
      "name": "Voted",
      "type": "event"
    },
    {
      "anonymous": false,
      "inputs": [
        {
          "indexed": true,
          "internalType": "uint256",
          "name": "votingId",
          "type": "uint256"
        },
        {
          "indexed": true,
          "internalType": "address",
          "name": "voter",
          "type": "address"
        },
        {
          "indexed": false,
          "internalType": "bytes32",
          "name": "emailHash",
          "type": "bytes32"
        }
      ],
      "name": "VoterRegistered",
      "type": "event"
    },
    {
      "anonymous": false,
      "inputs": [
        {
          "indexed": true,
          "internalType": "uint256",
          "name": "votingId",
          "type": "uint256"
        },
        {
          "indexed": false,
          "internalType": "string",
          "name": "title",
          "type": "string"
        },
        {
          "indexed": false,
          "internalType": "uint256",
          "name": "startTime",
          "type": "uint256"
        },
        {
          "indexed": false,
          "internalType": "uint256",
          "name": "endTime",
          "type": "uint256"
        },
        {
          "indexed": false,
          "internalType": "uint256",
          "name": "registrationEnd",
          "type": "uint256"
        }
      ],
      "name": "VotingCreated",
      "type": "event"
    },
    {
      "anonymous": false,
      "inputs": [
        {
          "indexed": true,
          "internalType": "uint256",
          "name": "votingId",
          "type": "uint256"
        },
        {
          "indexed": false,
          "internalType": "uint256",
          "name": "startTime",
          "type": "uint256"
        },
        {
          "indexed": false,
          "internalType": "uint256",
          "name": "endTime",
          "type": "uint256"
        },
        {
          "indexed": false,
          "internalType": "uint256",
          "name": "registrationEnd",
          "type": "uint256"
        }
      ],
      "name": "VotingTimeSet",
      "type": "event"
    },
    {
      "inputs": [],
      "name": "admin",
      "outputs": [
        {
          "internalType": "address",
          "name": "",
          "type": "address"
        }
      ],
      "stateMutability": "view",
      "type": "function",
      "constant": true
    },
    {
      "inputs": [],
      "name": "votingCount",
      "outputs": [
        {
          "internalType": "uint256",
          "name": "",
          "type": "uint256"
        }
      ],
      "stateMutability": "view",
      "type": "function",
      "constant": true
    },
    {
      "inputs": [],
      "name": "votingToken",
      "outputs": [
        {
          "internalType": "contract IERC20",
          "name": "",
          "type": "address"
        }
      ],
      "stateMutability": "view",
      "type": "function",
      "constant": true
    },
    {
      "inputs": [],
      "name": "votingTokenContract",
      "outputs": [
        {
          "internalType": "contract IVotingToken",
          "name": "",
          "type": "address"
        }
      ],
      "stateMutability": "view",
      "type": "function",
      "constant": true
    },
    {
      "inputs": [
        {
          "internalType": "uint256",
          "name": "",
          "type": "uint256"
        }
      ],
      "name": "votings",
      "outputs": [
        {
          "internalType": "uint256",
          "name": "id",
          "type": "uint256"
        },
        {
          "internalType": "string",
          "name": "title",
          "type": "string"
        },
        {
          "internalType": "uint256",
          "name": "candidatesCount",
          "type": "uint256"
        },
        {
          "internalType": "uint256",
          "name": "votingStart",
          "type": "uint256"
        },
        {
          "internalType": "uint256",
          "name": "votingEnd",
          "type": "uint256"
        },
        {
          "internalType": "uint256",
          "name": "registrationEnd",
          "type": "uint256"
        },
        {
          "internalType": "bool",
          "name": "exists",
          "type": "bool"
        },
        {
          "internalType": "uint256",
          "name": "totalVotes",
          "type": "uint256"
        },
        {
          "internalType": "uint256",
          "name": "winningCandidateId",
          "type": "uint256"
        },
        {
          "internalType": "uint256",
          "name": "winningVoteCount",
          "type": "uint256"
        }
      ],
      "stateMutability": "view",
      "type": "function",
      "constant": true
    },
    {
      "inputs": [
        {
          "internalType": "string",
          "name": "_title",
          "type": "string"
        },
        {
          "internalType": "string[]",
          "name": "_candidateNames",
          "type": "string[]"
        },
        {
          "internalType": "string[]",
          "name": "_photoUrls",
          "type": "string[]"
        },
        {
          "internalType": "string[]",
          "name": "_resumes",
          "type": "string[]"
        },
        {
          "internalType": "string[]",
          "name": "_visions",
          "type": "string[]"
        },
        {
          "internalType": "string[]",
          "name": "_missions",
          "type": "string[]"
        },
        {
          "internalType": "uint256",
          "name": "_votingStart",
          "type": "uint256"
        },
        {
          "internalType": "uint256",
          "name": "_votingEnd",
          "type": "uint256"
        },
        {
          "internalType": "uint256",
          "name": "_registrationEnd",
          "type": "uint256"
        }
      ],
      "name": "createVoting",
      "outputs": [],
      "stateMutability": "nonpayable",
      "type": "function"
    },
    {
      "inputs": [],
      "name": "getAllVotingDetails",
      "outputs": [
        {
          "components": [
            {
              "internalType": "uint256",
              "name": "id",
              "type": "uint256"
            },
            {
              "internalType": "string",
              "name": "title",
              "type": "string"
            },
            {
              "internalType": "uint256",
              "name": "votingStart",
              "type": "uint256"
            },
            {
              "internalType": "uint256",
              "name": "votingEnd",
              "type": "uint256"
            },
            {
              "internalType": "uint256",
              "name": "registrationEnd",
              "type": "uint256"
            },
            {
              "internalType": "uint256",
              "name": "candidatesCount",
              "type": "uint256"
            },
            {
              "internalType": "uint256",
              "name": "totalVotes",
              "type": "uint256"
            }
          ],
          "internalType": "struct EVoting.VotingDetails[]",
          "name": "",
          "type": "tuple[]"
        }
      ],
      "stateMutability": "view",
      "type": "function",
      "constant": true
    },
    {
      "inputs": [
        {
          "internalType": "uint256",
          "name": "_votingId",
          "type": "uint256"
        }
      ],
      "name": "getVotingEnd",
      "outputs": [
        {
          "internalType": "uint256",
          "name": "",
          "type": "uint256"
        }
      ],
      "stateMutability": "view",
      "type": "function",
      "constant": true
    },
    {
      "inputs": [
        {
          "internalType": "uint256",
          "name": "_votingId",
          "type": "uint256"
        },
        {
          "internalType": "bytes32",
          "name": "_emailHash",
          "type": "bytes32"
        }
      ],
      "name": "selfRegister",
      "outputs": [],
      "stateMutability": "nonpayable",
      "type": "function"
    },
    {
      "inputs": [
        {
          "internalType": "uint256",
          "name": "_votingId",
          "type": "uint256"
        },
        {
          "internalType": "uint256",
          "name": "_candidateId",
          "type": "uint256"
        }
      ],
      "name": "vote",
      "outputs": [],
      "stateMutability": "nonpayable",
      "type": "function"
    },
    {
      "inputs": [
        {
          "internalType": "uint256",
          "name": "_votingId",
          "type": "uint256"
        },
        {
          "internalType": "uint256",
          "name": "_candidateId",
          "type": "uint256"
        }
      ],
      "name": "getCandidate",
      "outputs": [
        {
          "internalType": "uint256",
          "name": "",
          "type": "uint256"
        },
        {
          "internalType": "string",
          "name": "",
          "type": "string"
        },
        {
          "internalType": "string",
          "name": "",
          "type": "string"
        },
        {
          "internalType": "string",
          "name": "",
          "type": "string"
        },
        {
          "internalType": "string",
          "name": "",
          "type": "string"
        },
        {
          "internalType": "string",
          "name": "",
          "type": "string"
        },
        {
          "internalType": "uint256",
          "name": "",
          "type": "uint256"
        }
      ],
      "stateMutability": "view",
      "type": "function",
      "constant": true
    },
    {
      "inputs": [
        {
          "internalType": "uint256",
          "name": "_votingId",
          "type": "uint256"
        }
      ],
      "name": "getAllCandidates",
      "outputs": [
        {
          "components": [
            {
              "internalType": "uint256",
              "name": "id",
              "type": "uint256"
            },
            {
              "internalType": "string",
              "name": "name",
              "type": "string"
            },
            {
              "internalType": "string",
              "name": "photoUrl",
              "type": "string"
            },
            {
              "internalType": "string",
              "name": "resume",
              "type": "string"
            },
            {
              "internalType": "string",
              "name": "vision",
              "type": "string"
            },
            {
              "internalType": "string",
              "name": "mission",
              "type": "string"
            },
            {
              "internalType": "uint256",
              "name": "voteCount",
              "type": "uint256"
            }
          ],
          "internalType": "struct EVoting.Candidate[]",
          "name": "",
          "type": "tuple[]"
        }
      ],
      "stateMutability": "view",
      "type": "function",
      "constant": true
    },
    {
      "inputs": [
        {
          "internalType": "uint256",
          "name": "_votingId",
          "type": "uint256"
        }
      ],
      "name": "getWinner",
      "outputs": [
        {
          "internalType": "uint256",
          "name": "",
          "type": "uint256"
        },
        {
          "internalType": "string",
          "name": "",
          "type": "string"
        },
        {
          "internalType": "uint256",
          "name": "",
          "type": "uint256"
        },
        {
          "internalType": "string",
          "name": "",
          "type": "string"
        }
      ],
      "stateMutability": "view",
      "type": "function",
      "constant": true
    },
    {
      "inputs": [],
      "name": "getAllWinners",
      "outputs": [
        {
          "components": [
            {
              "internalType": "uint256",
              "name": "votingId",
              "type": "uint256"
            },
            {
              "internalType": "string",
              "name": "votingTitle",
              "type": "string"
            },
            {
              "internalType": "uint256",
              "name": "winnerId",
              "type": "uint256"
            },
            {
              "internalType": "string",
              "name": "winnerName",
              "type": "string"
            },
            {
              "internalType": "uint256",
              "name": "voteCount",
              "type": "uint256"
            },
            {
              "internalType": "string",
              "name": "photoUrl",
              "type": "string"
            }
          ],
          "internalType": "struct EVoting.Winner[]",
          "name": "",
          "type": "tuple[]"
        }
      ],
      "stateMutability": "view",
      "type": "function",
      "constant": true
    },
    {
      "inputs": [
        {
          "internalType": "uint256",
          "name": "_votingId",
          "type": "uint256"
        }
      ],
      "name": "getVotingDetails",
      "outputs": [
        {
          "internalType": "string",
          "name": "title",
          "type": "string"
        },
        {
          "internalType": "uint256",
          "name": "startTime",
          "type": "uint256"
        },
        {
          "internalType": "uint256",
          "name": "endTime",
          "type": "uint256"
        },
        {
          "internalType": "uint256",
          "name": "registrationEnd",
          "type": "uint256"
        },
        {
          "internalType": "uint256",
          "name": "candidateCount",
          "type": "uint256"
        },
        {
          "internalType": "uint256",
          "name": "totalVotes",
          "type": "uint256"
        }
      ],
      "stateMutability": "view",
      "type": "function",
      "constant": true
    },
    {
      "inputs": [
        {
          "internalType": "uint256",
          "name": "_votingId",
          "type": "uint256"
        },
        {
          "internalType": "address",
          "name": "_voter",
          "type": "address"
        }
      ],
      "name": "isVoterRegistered",
      "outputs": [
        {
          "internalType": "bool",
          "name": "",
          "type": "bool"
        }
      ],
      "stateMutability": "view",
      "type": "function",
      "constant": true
    },
    {
      "inputs": [
        {
          "internalType": "uint256",
          "name": "_votingId",
          "type": "uint256"
        },
        {
          "internalType": "address",
          "name": "_voter",
          "type": "address"
        }
      ],
      "name": "hasVoterVoted",
      "outputs": [
        {
          "internalType": "bool",
          "name": "",
          "type": "bool"
        }
      ],
      "stateMutability": "view",
      "type": "function",
      "constant": true
    },
    {
      "inputs": [
        {
          "internalType": "uint256",
          "name": "_votingId",
          "type": "uint256"
        },
        {
          "internalType": "address",
          "name": "_voter",
          "type": "address"
        }
      ],
      "name": "getVoterEmailHash",
      "outputs": [
        {
          "internalType": "bytes32",
          "name": "",
          "type": "bytes32"
        }
      ],
      "stateMutability": "view",
      "type": "function",
      "constant": true
    },
    {
      "inputs": [
        {
          "internalType": "uint256",
          "name": "_votingId",
          "type": "uint256"
        },
        {
          "internalType": "address",
          "name": "_voter",
          "type": "address"
        }
      ],
      "name": "isRegistered",
      "outputs": [
        {
          "internalType": "bool",
          "name": "",
          "type": "bool"
        }
      ],
      "stateMutability": "view",
      "type": "function",
      "constant": true
    },
    {
      "inputs": [
        {
          "internalType": "address",
          "name": "_voter",
          "type": "address"
        }
      ],
      "name": "hasRegisteredInAnyRound",
      "outputs": [
        {
          "internalType": "bool",
          "name": "",
          "type": "bool"
        }
      ],
      "stateMutability": "view",
      "type": "function",
      "constant": true
    }
  ],
  "bytecode": "0x608060405234801562000010575f80fd5b5060405162002c9f38038062002c9f8339810160408190526200003391620000a0565b60015f90815560058054336001600160a01b031991821681179092556003805482166001600160a01b03861690811790915560048054909216811790915560405190927f33c981baba081f8fd2c52ac6ad1ea95b6814b4376640f55689051f658472968891a350620000cf565b5f60208284031215620000b1575f80fd5b81516001600160a01b0381168114620000c8575f80fd5b9392505050565b612bc280620000dd5f395ff3fe608060405234801561000f575f80fd5b5060043610610127575f3560e01c8063a598d03c116100a9578063c00254551161006e578063c0025455146102cc578063c8a25bbf146102df578063dc6b8627146102f2578063f851a44014610307578063f9ded6461461031a575f80fd5b8063a598d03c14610261578063b03401231461028a578063b384abef1461029d578063b424ab84146102b0578063b81f6e18146102b9575f80fd5b80634129b2c9116100ef5780634129b2c9146101b95780634bd46448146101dc5780636a5f4444146102025780637f7909941461022d578063a0d96f0c1461024e575f80fd5b80630f66c90f1461012b57806335a5fab11461014957806336effcaa1461015e57806338413de214610183578063394eaa8f14610196575b5f80fd5b61013361033a565b604051610140919061229c565b60405180910390f35b61015c61015736600461248f565b610502565b005b61017161016c366004612597565b610b1d565b604051610140969594939291906125ae565b61015c6101913660046125e9565b610c18565b6101a96101a4366004612624565b610dbb565b6040519015158152602001610140565b6101cc6101c7366004612597565b610e13565b604051610140949392919061264e565b6101ef6101ea3660046125e9565b610feb565b6040516101409796959493929190612689565b600454610215906001600160a01b031681565b6040516001600160a01b039091168152602001610140565b61024061023b366004612597565b6113dc565b604051908152602001610140565b6101a961025c366004612624565b611417565b61027461026f366004612597565b61146e565b6040516101409a99989796959493929190612704565b600354610215906001600160a01b031681565b61015c6102ab3660046125e9565b611546565b61024060025481565b6101a96102c7366004612624565b61191d565b6101a96102da36600461275f565b611974565b6102406102ed366004612624565b6119e5565b6102fa611a39565b604051610140919061277f565b600554610215906001600160a01b031681565b61032d610328366004612597565b611db5565b6040516101409190612831565b60605f60025467ffffffffffffffff81111561035857610358612343565b6040519080825280602002602001820160405280156103c357816020015b6103b06040518060e001604052805f8152602001606081526020015f81526020015f81526020015f81526020015f81526020015f81525090565b8152602001906001900390816103765790505b50905060015b60025481116104fc575f818152600160205260409020600b81015460ff16156104e9576040518060e00160405280825f0154815260200182600101805461040f9061290e565b80601f016020809104026020016040519081016040528092919081815260200182805461043b9061290e565b80156104865780601f1061045d57610100808354040283529160200191610486565b820191905f5260205f20905b81548152906001019060200180831161046957829003601f168201915b505050918352505060048301546020820152600583015460408201526006830154606082015260038301546080820152600c83015460a090910152836104cd600185612954565b815181106104dd576104dd612967565b60200260200101819052505b50806104f48161297b565b9150506103c9565b50919050565b6005546001600160a01b031633146105785760405162461bcd60e51b815260206004820152602e60248201527f48616e79612061646d696e2079616e67206461706174206d656c616b756b616e60448201526d103a34b73230b5b0b71034b7349760911b60648201526084015b60405180910390fd5b8282116105d85760405162461bcd60e51b815260206004820152602860248201527f57616b74752073656c6573616920686172757320736574656c61682077616b746044820152673a9036bab630b49760c11b606482015260840161056f565b8281111561065a5760405162461bcd60e51b815260206004820152604360248201527f57616b7475207265676973747261736920686172757320736562656c756d206160448201527f7461752073616d612064656e67616e2077616b7475206d756c616920766f746960648201526237339760e91b608482015260a40161056f565b8651885114801561066c575085518851145b8015610679575084518851145b8015610686575083518851145b6106f05760405162461bcd60e51b815260206004820152603560248201527f41727261792064617461206b616e6469646174206861727573206d656d696c6960448201527435b4903830b73530b733903cb0b7339039b0b6b09760591b606482015260840161056f565b5f88511161074a5760405162461bcd60e51b815260206004820152602160248201527f4d696e696d616c2073617475206b616e64696461742064697065726c756b616e6044820152601760f91b606482015260840161056f565b60028054905f6107598361297b565b90915550506002545f81815260016020819052604090912091825581016107808b826129e1565b50600481018490556005810183905560068101829055600b8101805460ff191660011790555f600c8201819055600d8201819055600e82018190555b89518110156109f457600382018054905f6107d68361297b565b91905055506040518060e00160405280836003015481526020018b838151811061080257610802612967565b602002602001015181526020018a838151811061082157610821612967565b6020026020010151815260200189838151811061084057610840612967565b6020026020010151815260200188838151811061085f5761085f612967565b6020026020010151815260200187838151811061087e5761087e612967565b60209081029190910181015182525f918101829052600385015482526002850181526040909120825181559082015160018201906108bc90826129e1565b50604082015160028201906108d190826129e1565b50606082015160038201906108e690826129e1565b50608082015160048201906108fb90826129e1565b5060a0820151600582019061091090826129e1565b5060c0820151816006015590505081600301546002547f922183547ad38fb75d2747b5db22aeb9b0cf05f4b25975e17989a220dd5ccea38c848151811061095957610959612967565b60200260200101518c858151811061097357610973612967565b60200260200101518c868151811061098d5761098d612967565b60200260200101518c87815181106109a7576109a7612967565b60200260200101518c88815181106109c1576109c1612967565b60200260200101516040516109da959493929190612a9d565b60405180910390a3806109ec8161297b565b9150506107bc565b506002547f9b2a82a8cc59ee37bc113f5b2f5a80dd8a2c0af4ba4f257ea5ce7816b06c73a98260030154604051610a2d91815260200190565b60405180910390a26002547fe5a0ba6d2f5c42fcc94307738c3b6182d23ca70b75b7bdf1aa9377ce257d47d78b868686604051610a6d9493929190612afd565b60405180910390a260025460408051868152602081018690529081018490527fa941a8d45e5f36c4ad6d384f5e93877fc58e6952e792a606b179587d1f6c32e19060600160405180910390a260048054600254604051633275c16d60e21b8152928301526001600160a01b03169063c9d705b4906024015f604051808303815f87803b158015610afb575f80fd5b505af1158015610b0d573d5f803e3d5ffd5b5050505050505050505050505050565b5f818152600160205260408120600b8101546060929182918291829182919060ff16610b5b5760405162461bcd60e51b815260040161056f90612b2b565b80600101816004015482600501548360060154846003015485600c0154858054610b849061290e565b80601f0160208091040260200160405190810160405280929190818152602001828054610bb09061290e565b8015610bfb5780601f10610bd257610100808354040283529160200191610bfb565b820191905f5260205f20905b815481529060010190602001808311610bde57829003601f168201915b505050505095509650965096509650965096505091939550919395565b5f828152600160205260409020600b81015460ff16610c495760405162461bcd60e51b815260040161056f90612b2b565b8060060154421115610c9d5760405162461bcd60e51b815260206004820152601960248201527f526567697374726173692074656c616820646974757475702e00000000000000604482015260640161056f565b335f908152600a8201602052604090205460ff1615610cf65760405162461bcd60e51b815260206004820152601560248201527420b732309039bab230b4103a32b93230b33a30b91760591b604482015260640161056f565b81610d435760405162461bcd60e51b815260206004820152601e60248201527f4861736820656d61696c20746964616b20626f6c6568206b6f736f6e672e0000604482015260640161056f565b335f818152600a8301602090815260408083208054600160ff19918216811790925560098701845282852088905560078701845293829020805490941617909255905184815285917fac80ab55aa31256e858d3769a6d44ecaa5b6fe5b9e301db4ffe6cb934811db96910160405180910390a3505050565b5f828152600160205260408120600b81015460ff16610dec5760405162461bcd60e51b815260040161056f90612b2b565b6001600160a01b0383165f9081526007909101602052604090205460ff1690505b92915050565b5f818152600160205260408120600b810154606091839183919060ff16610e4c5760405162461bcd60e51b815260040161056f90612b2b565b80600501544211610e9f5760405162461bcd60e51b815260206004820152601960248201527f566f74696e67206d61736968206265726c616e6773756e672e00000000000000604482015260640161056f565b600d8101545f81815260028084016020526040909120600e84015460018201805490939192909101908390610ed39061290e565b80601f0160208091040260200160405190810160405280929190818152602001828054610eff9061290e565b8015610f4a5780601f10610f2157610100808354040283529160200191610f4a565b820191905f5260205f20905b815481529060010190602001808311610f2d57829003601f168201915b50505050509250808054610f5d9061290e565b80601f0160208091040260200160405190810160405280929190818152602001828054610f899061290e565b8015610fd45780601f10610fab57610100808354040283529160200191610fd4565b820191905f5260205f20905b815481529060010190602001808311610fb757829003601f168201915b505050505090509450945094509450509193509193565b5f828152600160205260408120600b8101546060918291829182918291879160ff166110295760405162461bcd60e51b815260040161056f90612b2b565b5f8911801561103c575080600301548911155b6110835760405162461bcd60e51b815260206004820152601860248201527724a21035b0b73234b230ba103a34b230b5903b30b634b21760411b604482015260640161056f565b5f816002015f8b81526020019081526020015f206040518060e00160405290815f82015481526020016001820180546110bb9061290e565b80601f01602080910402602001604051908101604052809291908181526020018280546110e79061290e565b80156111325780601f1061110957610100808354040283529160200191611132565b820191905f5260205f20905b81548152906001019060200180831161111557829003601f168201915b5050505050815260200160028201805461114b9061290e565b80601f01602080910402602001604051908101604052809291908181526020018280546111779061290e565b80156111c25780601f10611199576101008083540402835291602001916111c2565b820191905f5260205f20905b8154815290600101906020018083116111a557829003601f168201915b505050505081526020016003820180546111db9061290e565b80601f01602080910402602001604051908101604052809291908181526020018280546112079061290e565b80156112525780601f1061122957610100808354040283529160200191611252565b820191905f5260205f20905b81548152906001019060200180831161123557829003601f168201915b5050505050815260200160048201805461126b9061290e565b80601f01602080910402602001604051908101604052809291908181526020018280546112979061290e565b80156112e25780601f106112b9576101008083540402835291602001916112e2565b820191905f5260205f20905b8154815290600101906020018083116112c557829003601f168201915b505050505081526020016005820180546112fb9061290e565b80601f01602080910402602001604051908101604052809291908181526020018280546113279061290e565b80156113725780601f1061134957610100808354040283529160200191611372565b820191905f5260205f20905b81548152906001019060200180831161135557829003601f168201915b5050505050815260200160068201548152505090505f82600501544211611399575f61139f565b8160c001515b9050815f015182602001518360400151846060015185608001518660a0015186995099509950995099509950995050505092959891949750929550565b5f818152600160205260408120600b81015460ff1661140d5760405162461bcd60e51b815260040161056f90612b2b565b6005015492915050565b5f828152600160205260408120600b81015460ff166114485760405162461bcd60e51b815260040161056f90612b2b565b6001600160a01b0383165f9081526008909101602052604090205460ff16905092915050565b600160208190525f91825260409091208054918101805461148e9061290e565b80601f01602080910402602001604051908101604052809291908181526020018280546114ba9061290e565b80156115055780601f106114dc57610100808354040283529160200191611505565b820191905f5260205f20905b8154815290600101906020018083116114e857829003601f168201915b5050506003840154600485015460058601546006870154600b880154600c890154600d8a0154600e909a015498999598949750929550909360ff909116928a565b5f828152600160205260409020600b81015483919060ff1661157a5760405162461bcd60e51b815260040161056f90612b2b565b80600401544210158015611592575080600501544211155b6115d45760405162461bcd60e51b81526020600482015260136024820152722b37ba34b733903a34b230b59030b5ba34b31760691b604482015260640161056f565b6115dc612231565b5f848152600160209081526040808320338452600781019092529091205460ff166116495760405162461bcd60e51b815260206004820152601d60248201527f416e64612062756b616e2070656d696c6968207465726461667461722e000000604482015260640161056f565b335f90815260088201602052604090205460ff16156116a05760405162461bcd60e51b815260206004820152601360248201527220b732309039bab230b41036b2b6b4b634b41760691b604482015260640161056f565b5f841180156116b3575080600301548411155b6116fa5760405162461bcd60e51b815260206004820152601860248201527724a21035b0b73234b230ba103a34b230b5903b30b634b21760411b604482015260640161056f565b600354604051636eb1769f60e11b8152336004820152306024820152670de0b6b3a7640000916001600160a01b03169063dd62ed3e90604401602060405180830381865afa15801561174e573d5f803e3d5ffd5b505050506040513d601f19601f820116820180604052508101906117729190612b56565b10156117cc5760405162461bcd60e51b815260206004820152602360248201527f416c6c6f77616e636520746964616b2063756b757020756e74756b20766f746960448201526237339760e91b606482015260840161056f565b6003546040516323b872dd60e01b81523360048201526001600160a01b0390911660248201819052670de0b6b3a76400006044830152906323b872dd906064016020604051808303815f875af1158015611828573d5f803e3d5ffd5b505050506040513d601f19601f8201168201806040525081019061184c9190612b6d565b50335f9081526008820160209081526040808320805460ff191660011790558683526002840190915281206006018054916118868361297b565b9091555050600c81018054905f61189c8361297b565b9091555050600e8101545f85815260028301602052604090206006015411156118df575f848152600282016020526040902060060154600e820155600d81018490555b6040518490339087907f1abe610cf2bf87e57dcc1181fcf5ac0934e843d8344ab9eed6e86c799f62585e905f90a45061191760015f55565b50505050565b5f828152600160205260408120600b81015460ff1661194e5760405162461bcd60e51b815260040161056f90612b2b565b6001600160a01b0383165f908152600a909101602052604090205460ff16905092915050565b5f60015b60025481116119dd575f818152600160205260409020600b81015460ff1680156119bb57506001600160a01b0384165f908152600a8201602052604090205460ff165b156119ca575060019392505050565b50806119d58161297b565b915050611978565b505f92915050565b5f828152600160205260408120600b81015460ff16611a165760405162461bcd60e51b815260040161056f90612b2b565b6001600160a01b0383165f90815260099091016020526040902054905092915050565b60605f60015b6002548111611aa1575f818152600160205260409020600b81015460ff168015611a6c5750806005015442115b8015611a7b5750600d81015415155b15611a8e5782611a8a8161297b565b9350505b5080611a998161297b565b915050611a3f565b505f8167ffffffffffffffff811115611abc57611abc612343565b604051908082528060200260200182016040528015611b2357816020015b611b106040518060c001604052805f8152602001606081526020015f8152602001606081526020015f8152602001606081525090565b815260200190600190039081611ada5790505b5090505f60015b6002548111611dac575f818152600160205260409020600b81015460ff168015611b575750806005015442115b8015611b665750600d81015415155b15611d99576040518060c00160405280825f01548152602001826001018054611b8e9061290e565b80601f0160208091040260200160405190810160405280929190818152602001828054611bba9061290e565b8015611c055780601f10611bdc57610100808354040283529160200191611c05565b820191905f5260205f20905b815481529060010190602001808311611be857829003601f168201915b5050505050815260200182600d01548152602001826002015f84600d015481526020019081526020015f206001018054611c3e9061290e565b80601f0160208091040260200160405190810160405280929190818152602001828054611c6a9061290e565b8015611cb55780601f10611c8c57610100808354040283529160200191611cb5565b820191905f5260205f20905b815481529060010190602001808311611c9857829003601f168201915b5050505050815260200182600e01548152602001826002015f84600d015481526020019081526020015f206002018054611cee9061290e565b80601f0160208091040260200160405190810160405280929190818152602001828054611d1a9061290e565b8015611d655780601f10611d3c57610100808354040283529160200191611d65565b820191905f5260205f20905b815481529060010190602001808311611d4857829003601f168201915b5050505050815250848481518110611d7f57611d7f612967565b60200260200101819052508280611d959061297b565b9350505b5080611da48161297b565b915050611b2a565b50909392505050565b5f818152600160205260409020600b8101546060919060ff16611dea5760405162461bcd60e51b815260040161056f90612b2b565b5f816003015467ffffffffffffffff811115611e0857611e08612343565b604051908082528060200260200182016040528015611e7757816020015b611e646040518060e001604052805f815260200160608152602001606081526020016060815260200160608152602001606081526020015f81525090565b815260200190600190039081611e265790505b50905060015b8260030154811161222957826002015f8281526020019081526020015f206040518060e00160405290815f8201548152602001600182018054611ebf9061290e565b80601f0160208091040260200160405190810160405280929190818152602001828054611eeb9061290e565b8015611f365780601f10611f0d57610100808354040283529160200191611f36565b820191905f5260205f20905b815481529060010190602001808311611f1957829003601f168201915b50505050508152602001600282018054611f4f9061290e565b80601f0160208091040260200160405190810160405280929190818152602001828054611f7b9061290e565b8015611fc65780601f10611f9d57610100808354040283529160200191611fc6565b820191905f5260205f20905b815481529060010190602001808311611fa957829003601f168201915b50505050508152602001600382018054611fdf9061290e565b80601f016020809104026020016040519081016040528092919081815260200182805461200b9061290e565b80156120565780601f1061202d57610100808354040283529160200191612056565b820191905f5260205f20905b81548152906001019060200180831161203957829003601f168201915b5050505050815260200160048201805461206f9061290e565b80601f016020809104026020016040519081016040528092919081815260200182805461209b9061290e565b80156120e65780601f106120bd576101008083540402835291602001916120e6565b820191905f5260205f20905b8154815290600101906020018083116120c957829003601f168201915b505050505081526020016005820180546120ff9061290e565b80601f016020809104026020016040519081016040528092919081815260200182805461212b9061290e565b80156121765780601f1061214d57610100808354040283529160200191612176565b820191905f5260205f20905b81548152906001019060200180831161215957829003601f168201915b50505050508152602001600682015481525050826001836121979190612954565b815181106121a7576121a7612967565b6020026020010181905250826005015442116121c3575f6121ec565b816121cf600183612954565b815181106121df576121df612967565b602002602001015160c001515b826121f8600184612954565b8151811061220857612208612967565b602090810291909101015160c00152806122218161297b565b915050611e7d565b509392505050565b60025f540361225357604051633ee5aeb560e01b815260040160405180910390fd5b60025f55565b5f81518084525f5b8181101561227d57602081850181015186830182015201612261565b505f602082860101526020601f19601f83011685010191505092915050565b5f6020808301818452808551808352604092508286019150828160051b8701018488015f5b8381101561233557603f19898403018552815160e08151855288820151818a8701526122ef82870182612259565b838a0151878b0152606080850151908801526080808501519088015260a0808501519088015260c0938401519390960192909252505093860193908601906001016122c1565b509098975050505050505050565b634e487b7160e01b5f52604160045260245ffd5b604051601f8201601f1916810167ffffffffffffffff8111828210171561238057612380612343565b604052919050565b5f82601f830112612397575f80fd5b813567ffffffffffffffff8111156123b1576123b1612343565b6123c4601f8201601f1916602001612357565b8181528460208386010111156123d8575f80fd5b816020850160208301375f918101602001919091529392505050565b5f82601f830112612403575f80fd5b8135602067ffffffffffffffff8083111561242057612420612343565b8260051b61242f838201612357565b9384528581018301938381019088861115612448575f80fd5b84880192505b8583101561248357823584811115612465575f8081fd5b6124738a87838c0101612388565b835250918401919084019061244e565b98975050505050505050565b5f805f805f805f805f6101208a8c0312156124a8575f80fd5b893567ffffffffffffffff808211156124bf575f80fd5b6124cb8d838e01612388565b9a5060208c01359150808211156124e0575f80fd5b6124ec8d838e016123f4565b995060408c0135915080821115612501575f80fd5b61250d8d838e016123f4565b985060608c0135915080821115612522575f80fd5b61252e8d838e016123f4565b975060808c0135915080821115612543575f80fd5b61254f8d838e016123f4565b965060a08c0135915080821115612564575f80fd5b506125718c828d016123f4565b94505060c08a0135925060e08a013591506101008a013590509295985092959850929598565b5f602082840312156125a7575f80fd5b5035919050565b60c081525f6125c060c0830189612259565b60208301979097525060408101949094526060840192909252608083015260a090910152919050565b5f80604083850312156125fa575f80fd5b50508035926020909101359150565b80356001600160a01b038116811461261f575f80fd5b919050565b5f8060408385031215612635575f80fd5b8235915061264560208401612609565b90509250929050565b848152608060208201525f6126666080830186612259565b846040840152828103606084015261267e8185612259565b979650505050505050565b87815260e060208201525f6126a160e0830189612259565b82810360408401526126b38189612259565b905082810360608401526126c78188612259565b905082810360808401526126db8187612259565b905082810360a08401526126ef8186612259565b9150508260c083015298975050505050505050565b5f6101408c835280602084015261271d8184018d612259565b604084019b909b5250506060810197909752608087019590955260a086019390935290151560c085015260e08401526101008301526101209091015292915050565b5f6020828403121561276f575f80fd5b61277882612609565b9392505050565b5f6020808301818452808551808352604092508286019150828160051b8701018488015f5b8381101561233557603f19898403018552815160c08151855288820151818a8701526127d282870182612259565b9150508782015188860152606080830151868303828801526127f48382612259565b92505050608080830151818701525060a0808301519250858203818701525061281d8183612259565b9689019694505050908601906001016127a4565b5f6020808301818452808551808352604092508286019150828160051b8701018488015f5b8381101561233557603f19898403018552815160e08151855288820151818a87015261288482870182612259565b915050878201518582038987015261289c8282612259565b915050606080830151868303828801526128b68382612259565b92505050608080830151868303828801526128d18382612259565b9250505060a080830151868303828801526128ec8382612259565b60c0948501519790940196909652505094870194925090860190600101612856565b600181811c9082168061292257607f821691505b6020821081036104fc57634e487b7160e01b5f52602260045260245ffd5b634e487b7160e01b5f52601160045260245ffd5b81810381811115610e0d57610e0d612940565b634e487b7160e01b5f52603260045260245ffd5b5f6001820161298c5761298c612940565b5060010190565b601f8211156129dc575f81815260208120601f850160051c810160208610156129b95750805b601f850160051c820191505b818110156129d8578281556001016129c5565b5050505b505050565b815167ffffffffffffffff8111156129fb576129fb612343565b612a0f81612a09845461290e565b84612993565b602080601f831160018114612a42575f8415612a2b5750858301515b5f19600386901b1c1916600185901b1785556129d8565b5f85815260208120601f198616915b82811015612a7057888601518255948401946001909101908401612a51565b5085821015612a8d57878501515f19600388901b60f8161c191681555b5050505050600190811b01905550565b60a081525f612aaf60a0830188612259565b8281036020840152612ac18188612259565b90508281036040840152612ad58187612259565b90508281036060840152612ae98186612259565b905082810360808401526124838185612259565b608081525f612b0f6080830187612259565b6020830195909552506040810192909252606090910152919050565b6020808252601190820152702b37ba34b733903a34b230b59030b2309760791b604082015260600190565b5f60208284031215612b66575f80fd5b5051919050565b5f60208284031215612b7d575f80fd5b81518015158114612778575f80fdfea2646970667358221220e806c6e629afdb18a1abd664b6b328c01261c5dd10509d819a57c13df459974c64736f6c63430008140033",
  "immutableReferences": {},
  "source": "// SPDX-License-Identifier: MIT\r\npragma solidity ^0.8.0;\r\n\r\nimport \"@openzeppelin/contracts/token/ERC20/IERC20.sol\";\r\nimport \"@openzeppelin/contracts/utils/ReentrancyGuard.sol\";\r\n\r\ninterface IVotingToken {\r\n    function setActiveVotingId(uint votingId) external;\r\n}\r\n\r\ncontract EVoting is ReentrancyGuard {\r\n    struct Candidate {\r\n        uint id;\r\n        string name;\r\n        string photoUrl;\r\n        string resume;\r\n        string vision;\r\n        string mission;\r\n        uint voteCount;\r\n    }\r\n\r\n    struct Voting {\r\n        uint id;\r\n        string title;\r\n        mapping(uint => Candidate) candidates;\r\n        uint candidatesCount;\r\n        uint votingStart;\r\n        uint votingEnd;\r\n        uint registrationEnd;\r\n        mapping(address => bool) voters;\r\n        mapping(address => bool) hasVoted;\r\n        mapping(address => bytes32) voterEmailHashes;\r\n        mapping(address => bool) isRegistered;\r\n        bool exists;\r\n        uint totalVotes;\r\n        uint winningCandidateId;\r\n        uint winningVoteCount;\r\n    }\r\n\r\n    struct VotingDetails {\r\n        uint id;\r\n        string title;\r\n        uint votingStart;\r\n        uint votingEnd;\r\n        uint registrationEnd;\r\n        uint candidatesCount;\r\n        uint totalVotes;\r\n    }\r\n\r\n    struct Winner {\r\n        uint votingId;\r\n        string votingTitle;\r\n        uint winnerId;\r\n        string winnerName;\r\n        uint voteCount;\r\n        string photoUrl;\r\n    }\r\n\r\n    mapping(uint => Voting) public votings;\r\n    uint public votingCount;\r\n    IERC20 public votingToken;\r\n    IVotingToken public votingTokenContract;\r\n    address public admin;\r\n\r\n    event VotingCreated(uint indexed votingId, string title, uint startTime, uint endTime, uint registrationEnd);\r\n    event CandidateAdded(uint indexed votingId, uint indexed candidateId, string name, string photoUrl, string resume, string vision, string mission);\r\n    event CandidatesInitialized(uint indexed votingId, uint candidatesCount);\r\n    event VoterRegistered(uint indexed votingId, address indexed voter, bytes32 emailHash);\r\n    event Voted(uint indexed votingId, address indexed voter, uint indexed candidateId);\r\n    event VotingTimeSet(uint indexed votingId, uint startTime, uint endTime, uint registrationEnd);\r\n    event ContractDeployed(address indexed admin, address indexed votingToken);\r\n\r\n    modifier onlyAdmin() {\r\n        require(msg.sender == admin, \"Hanya admin yang dapat melakukan tindakan ini.\");\r\n        _;\r\n    }\r\n\r\n    modifier onlyDuringVoting(uint _votingId) {\r\n        Voting storage voting = votings[_votingId];\r\n        require(voting.exists, \"Voting tidak ada.\");\r\n        require(block.timestamp >= voting.votingStart && block.timestamp <= voting.votingEnd, \"Voting tidak aktif.\");\r\n        _;\r\n    }\r\n\r\n    constructor(IERC20 _votingToken) {\r\n        admin = msg.sender;\r\n        votingToken = _votingToken;\r\n        votingTokenContract = IVotingToken(address(_votingToken));\r\n        emit ContractDeployed(msg.sender, address(_votingToken));\r\n    }\r\n\r\n    function createVoting(\r\n        string memory _title,\r\n        string[] memory _candidateNames,\r\n        string[] memory _photoUrls,\r\n        string[] memory _resumes,\r\n        string[] memory _visions,\r\n        string[] memory _missions,\r\n        uint _votingStart,\r\n        uint _votingEnd,\r\n        uint _registrationEnd\r\n    ) public onlyAdmin {\r\n        require(_votingEnd > _votingStart, \"Waktu selesai harus setelah waktu mulai.\");\r\n        require(_registrationEnd <= _votingStart, \"Waktu registrasi harus sebelum atau sama dengan waktu mulai voting.\");\r\n        require(_candidateNames.length == _photoUrls.length &&\r\n                _candidateNames.length == _resumes.length &&\r\n                _candidateNames.length == _visions.length &&\r\n                _candidateNames.length == _missions.length, \"Array data kandidat harus memiliki panjang yang sama.\");\r\n        require(_candidateNames.length > 0, \"Minimal satu kandidat diperlukan.\");\r\n\r\n        votingCount++;\r\n        Voting storage newVoting = votings[votingCount];\r\n        newVoting.id = votingCount;\r\n        newVoting.title = _title;\r\n        newVoting.votingStart = _votingStart;\r\n        newVoting.votingEnd = _votingEnd;\r\n        newVoting.registrationEnd = _registrationEnd;\r\n        newVoting.exists = true;\r\n        newVoting.totalVotes = 0;\r\n        newVoting.winningCandidateId = 0;\r\n        newVoting.winningVoteCount = 0;\r\n\r\n        for (uint i = 0; i < _candidateNames.length; i++) {\r\n            newVoting.candidatesCount++;\r\n            newVoting.candidates[newVoting.candidatesCount] = Candidate(\r\n                newVoting.candidatesCount,\r\n                _candidateNames[i],\r\n                _photoUrls[i],\r\n                _resumes[i],\r\n                _visions[i],\r\n                _missions[i],\r\n                0\r\n            );\r\n            emit CandidateAdded(votingCount, newVoting.candidatesCount, _candidateNames[i], _photoUrls[i], _resumes[i], _visions[i], _missions[i]);\r\n        }\r\n\r\n        emit CandidatesInitialized(votingCount, newVoting.candidatesCount);\r\n        emit VotingCreated(votingCount, _title, _votingStart, _votingEnd, _registrationEnd);\r\n        emit VotingTimeSet(votingCount, _votingStart, _votingEnd, _registrationEnd);\r\n\r\n        votingTokenContract.setActiveVotingId(votingCount);\r\n    }\r\n\r\n    function getAllVotingDetails() public view returns (VotingDetails[] memory) {\r\n        VotingDetails[] memory allDetails = new VotingDetails[](votingCount);\r\n        for (uint i = 1; i <= votingCount; i++) {\r\n            Voting storage voting = votings[i];\r\n            if (voting.exists) {\r\n                allDetails[i-1] = VotingDetails({\r\n                    id: voting.id,\r\n                    title: voting.title,\r\n                    votingStart: voting.votingStart,\r\n                    votingEnd: voting.votingEnd,\r\n                    registrationEnd: voting.registrationEnd,\r\n                    candidatesCount: voting.candidatesCount,\r\n                    totalVotes: voting.totalVotes\r\n                });\r\n            }\r\n        }\r\n        return allDetails;\r\n    }\r\n\r\n    // Fungsi baru untuk mendapatkan votingEnd dari votingId tertentu\r\n    function getVotingEnd(uint _votingId) public view returns (uint) {\r\n        Voting storage voting = votings[_votingId];\r\n        require(voting.exists, \"Voting tidak ada.\");\r\n        return voting.votingEnd;\r\n    }\r\n\r\n    function selfRegister(uint _votingId, bytes32 _emailHash) public {\r\n        Voting storage voting = votings[_votingId];\r\n        require(voting.exists, \"Voting tidak ada.\");\r\n        require(block.timestamp <= voting.registrationEnd, \"Registrasi telah ditutup.\");\r\n        require(!voting.isRegistered[msg.sender], \"Anda sudah terdaftar.\");\r\n        require(_emailHash != bytes32(0), \"Hash email tidak boleh kosong.\");\r\n\r\n        voting.isRegistered[msg.sender] = true;\r\n        voting.voterEmailHashes[msg.sender] = _emailHash;\r\n        voting.voters[msg.sender] = true;\r\n        emit VoterRegistered(_votingId, msg.sender, _emailHash);\r\n    }\r\n\r\n    function vote(uint _votingId, uint _candidateId) public onlyDuringVoting(_votingId) nonReentrant {\r\n        Voting storage voting = votings[_votingId];\r\n        require(voting.voters[msg.sender], \"Anda bukan pemilih terdaftar.\");\r\n        require(!voting.hasVoted[msg.sender], \"Anda sudah memilih.\");\r\n        require(_candidateId > 0 && _candidateId <= voting.candidatesCount, \"ID kandidat tidak valid.\");\r\n        require(votingToken.allowance(msg.sender, address(this)) >= 1 * 10 ** 18, \"Allowance tidak cukup untuk voting.\");\r\n\r\n        votingToken.transferFrom(msg.sender, address(votingToken), 1 * 10 ** 18);\r\n\r\n        voting.hasVoted[msg.sender] = true;\r\n        voting.candidates[_candidateId].voteCount++;\r\n        voting.totalVotes++;\r\n\r\n        if (voting.candidates[_candidateId].voteCount > voting.winningVoteCount) {\r\n            voting.winningVoteCount = voting.candidates[_candidateId].voteCount;\r\n            voting.winningCandidateId = _candidateId;\r\n        }\r\n\r\n        emit Voted(_votingId, msg.sender, _candidateId);\r\n    }\r\n\r\n    function getCandidate(uint _votingId, uint _candidateId) public view returns (uint, string memory, string memory, string memory, string memory, string memory, uint) {\r\n        Voting storage voting = votings[_votingId];\r\n        require(voting.exists, \"Voting tidak ada.\");\r\n        require(_candidateId > 0 && _candidateId <= voting.candidatesCount, \"ID kandidat tidak valid.\");\r\n        Candidate memory candidate = voting.candidates[_candidateId];\r\n\r\n        uint displayedVoteCount = block.timestamp > voting.votingEnd ? candidate.voteCount : 0;\r\n\r\n        return (candidate.id, candidate.name, candidate.photoUrl, candidate.resume, candidate.vision, candidate.mission, displayedVoteCount);\r\n    }\r\n\r\n    function getAllCandidates(uint _votingId) public view returns (Candidate[] memory) {\r\n        Voting storage voting = votings[_votingId];\r\n        require(voting.exists, \"Voting tidak ada.\");\r\n        Candidate[] memory candidates = new Candidate[](voting.candidatesCount);\r\n        for (uint i = 1; i <= voting.candidatesCount; i++) {\r\n            candidates[i-1] = voting.candidates[i];\r\n            candidates[i-1].voteCount = block.timestamp > voting.votingEnd ? candidates[i-1].voteCount : 0;\r\n        }\r\n        return candidates;\r\n    }\r\n\r\n    function getWinner(uint _votingId) public view returns (uint, string memory, uint, string memory) {\r\n        Voting storage voting = votings[_votingId];\r\n        require(voting.exists, \"Voting tidak ada.\");\r\n        require(block.timestamp > voting.votingEnd, \"Voting masih berlangsung.\");\r\n\r\n        return (\r\n            voting.winningCandidateId,\r\n            voting.candidates[voting.winningCandidateId].name,\r\n            voting.winningVoteCount,\r\n            voting.candidates[voting.winningCandidateId].photoUrl\r\n        );\r\n    }\r\n\r\n    // Fungsi baru untuk mendapatkan semua pemenang dari voting yang sudah selesai\r\n    function getAllWinners() public view returns (Winner[] memory) {\r\n        // Hitung jumlah voting yang sudah selesai dan memiliki pemenang\r\n        uint finishedCount = 0;\r\n        for (uint i = 1; i <= votingCount; i++) {\r\n            Voting storage voting = votings[i];\r\n            if (voting.exists && block.timestamp > voting.votingEnd && voting.winningCandidateId != 0) {\r\n                finishedCount++;\r\n            }\r\n        }\r\n\r\n        // Buat array untuk menyimpan pemenang\r\n        Winner[] memory winners = new Winner[](finishedCount);\r\n        uint index = 0;\r\n\r\n        // Isi array dengan data pemenang\r\n        for (uint i = 1; i <= votingCount; i++) {\r\n            Voting storage voting = votings[i];\r\n            if (voting.exists && block.timestamp > voting.votingEnd && voting.winningCandidateId != 0) {\r\n                winners[index] = Winner({\r\n                    votingId: voting.id,\r\n                    votingTitle: voting.title,\r\n                    winnerId: voting.winningCandidateId,\r\n                    winnerName: voting.candidates[voting.winningCandidateId].name,\r\n                    voteCount: voting.winningVoteCount,\r\n                    photoUrl: voting.candidates[voting.winningCandidateId].photoUrl\r\n                });\r\n                index++;\r\n            }\r\n        }\r\n\r\n        return winners;\r\n    }\r\n\r\n    function getVotingDetails(uint _votingId) public view returns (string memory title, uint startTime, uint endTime, uint registrationEnd, uint candidateCount, uint totalVotes) {\r\n        Voting storage voting = votings[_votingId];\r\n        require(voting.exists, \"Voting tidak ada.\");\r\n\r\n        return (voting.title, voting.votingStart, voting.votingEnd, voting.registrationEnd, voting.candidatesCount, voting.totalVotes);\r\n    }\r\n\r\n    function isVoterRegistered(uint _votingId, address _voter) public view returns (bool) {\r\n        Voting storage voting = votings[_votingId];\r\n        require(voting.exists, \"Voting tidak ada.\");\r\n        return voting.voters[_voter];\r\n    }\r\n\r\n    function hasVoterVoted(uint _votingId, address _voter) public view returns (bool) {\r\n        Voting storage voting = votings[_votingId];\r\n        require(voting.exists, \"Voting tidak ada.\");\r\n        return voting.hasVoted[_voter];\r\n    }\r\n\r\n    function getVoterEmailHash(uint _votingId, address _voter) public view returns (bytes32) {\r\n        Voting storage voting = votings[_votingId];\r\n        require(voting.exists, \"Voting tidak ada.\");\r\n        return voting.voterEmailHashes[_voter];\r\n    }\r\n\r\n    function isRegistered(uint _votingId, address _voter) public view returns (bool) {\r\n        Voting storage voting = votings[_votingId];\r\n        require(voting.exists, \"Voting tidak ada.\");\r\n        return voting.isRegistered[_voter];\r\n    }\r\n\r\n    // Fungsi baru untuk memeriksa apakah pengguna sudah terdaftar di salah satu voting round\r\n    function hasRegisteredInAnyRound(address _voter) public view returns (bool) {\r\n        for (uint i = 1; i <= votingCount; i++) {\r\n            Voting storage voting = votings[i];\r\n            if (voting.exists && voting.isRegistered[_voter]) {\r\n                return true;\r\n            }\r\n        }\r\n        return false;\r\n    }\r\n}",
  "sourcePath": "D:\\TUGAS AKHIR\\truffle\\contracts\\Evoting.sol",
  "compiler": {
    "name": "solc",
    "version": "0.8.20+commit.a1b79de6.Emscripten.clang"
  },
  "schemaVersion": "3.4.16",
  "updatedAt": "2025-05-25T16:22:44.275Z",
  "networkType": "ethereum",
  "devdoc": {
    "errors": {
      "ReentrancyGuardReentrantCall()": [
        {
          "details": "Unauthorized reentrant call."
        }
      ]
    },
    "kind": "dev",
    "methods": {},
    "version": 1
  },
  "userdoc": {
    "kind": "user",
    "methods": {},
    "version": 1
  }
}