{
  "contractName": "EVoting",
  "abi": [
    {
      "inputs": [
        {
          "internalType": "contract IERC20",
          "name": "_votingToken",
          "type": "address"
        }
      ],
      "stateMutability": "nonpayable",
      "type": "constructor"
    },
    {
      "inputs": [],
      "name": "ReentrancyGuardReentrantCall",
      "type": "error"
    },
    {
      "anonymous": false,
      "inputs": [
        {
          "indexed": true,
          "internalType": "uint256",
          "name": "votingId",
          "type": "uint256"
        },
        {
          "indexed": true,
          "internalType": "uint256",
          "name": "candidateId",
          "type": "uint256"
        },
        {
          "indexed": false,
          "internalType": "string",
          "name": "name",
          "type": "string"
        },
        {
          "indexed": false,
          "internalType": "string",
          "name": "photoUrl",
          "type": "string"
        },
        {
          "indexed": false,
          "internalType": "string",
          "name": "resume",
          "type": "string"
        },
        {
          "indexed": false,
          "internalType": "string",
          "name": "vision",
          "type": "string"
        },
        {
          "indexed": false,
          "internalType": "string",
          "name": "mission",
          "type": "string"
        }
      ],
      "name": "CandidateAdded",
      "type": "event"
    },
    {
      "anonymous": false,
      "inputs": [
        {
          "indexed": true,
          "internalType": "uint256",
          "name": "votingId",
          "type": "uint256"
        },
        {
          "indexed": false,
          "internalType": "uint256",
          "name": "candidatesCount",
          "type": "uint256"
        }
      ],
      "name": "CandidatesInitialized",
      "type": "event"
    },
    {
      "anonymous": false,
      "inputs": [
        {
          "indexed": true,
          "internalType": "address",
          "name": "admin",
          "type": "address"
        },
        {
          "indexed": true,
          "internalType": "address",
          "name": "votingToken",
          "type": "address"
        }
      ],
      "name": "ContractDeployed",
      "type": "event"
    },
    {
      "anonymous": false,
      "inputs": [
        {
          "indexed": true,
          "internalType": "uint256",
          "name": "votingId",
          "type": "uint256"
        },
        {
          "indexed": true,
          "internalType": "address",
          "name": "voter",
          "type": "address"
        },
        {
          "indexed": true,
          "internalType": "uint256",
          "name": "candidateId",
          "type": "uint256"
        }
      ],
      "name": "Voted",
      "type": "event"
    },
    {
      "anonymous": false,
      "inputs": [
        {
          "indexed": true,
          "internalType": "uint256",
          "name": "votingId",
          "type": "uint256"
        },
        {
          "indexed": true,
          "internalType": "address",
          "name": "voter",
          "type": "address"
        },
        {
          "indexed": false,
          "internalType": "bytes32",
          "name": "emailHash",
          "type": "bytes32"
        }
      ],
      "name": "VoterRegistered",
      "type": "event"
    },
    {
      "anonymous": false,
      "inputs": [
        {
          "indexed": true,
          "internalType": "uint256",
          "name": "votingId",
          "type": "uint256"
        },
        {
          "indexed": false,
          "internalType": "string",
          "name": "title",
          "type": "string"
        },
        {
          "indexed": false,
          "internalType": "uint256",
          "name": "startTime",
          "type": "uint256"
        },
        {
          "indexed": false,
          "internalType": "uint256",
          "name": "endTime",
          "type": "uint256"
        },
        {
          "indexed": false,
          "internalType": "uint256",
          "name": "registrationEnd",
          "type": "uint256"
        }
      ],
      "name": "VotingCreated",
      "type": "event"
    },
    {
      "anonymous": false,
      "inputs": [
        {
          "indexed": true,
          "internalType": "uint256",
          "name": "votingId",
          "type": "uint256"
        },
        {
          "indexed": false,
          "internalType": "uint256",
          "name": "startTime",
          "type": "uint256"
        },
        {
          "indexed": false,
          "internalType": "uint256",
          "name": "endTime",
          "type": "uint256"
        },
        {
          "indexed": false,
          "internalType": "uint256",
          "name": "registrationEnd",
          "type": "uint256"
        }
      ],
      "name": "VotingTimeSet",
      "type": "event"
    },
    {
      "inputs": [],
      "name": "admin",
      "outputs": [
        {
          "internalType": "address",
          "name": "",
          "type": "address"
        }
      ],
      "stateMutability": "view",
      "type": "function",
      "constant": true
    },
    {
      "inputs": [],
      "name": "votingCount",
      "outputs": [
        {
          "internalType": "uint256",
          "name": "",
          "type": "uint256"
        }
      ],
      "stateMutability": "view",
      "type": "function",
      "constant": true
    },
    {
      "inputs": [],
      "name": "votingToken",
      "outputs": [
        {
          "internalType": "contract IERC20",
          "name": "",
          "type": "address"
        }
      ],
      "stateMutability": "view",
      "type": "function",
      "constant": true
    },
    {
      "inputs": [],
      "name": "votingTokenContract",
      "outputs": [
        {
          "internalType": "contract IVotingToken",
          "name": "",
          "type": "address"
        }
      ],
      "stateMutability": "view",
      "type": "function",
      "constant": true
    },
    {
      "inputs": [
        {
          "internalType": "uint256",
          "name": "",
          "type": "uint256"
        }
      ],
      "name": "votings",
      "outputs": [
        {
          "internalType": "uint256",
          "name": "id",
          "type": "uint256"
        },
        {
          "internalType": "string",
          "name": "title",
          "type": "string"
        },
        {
          "internalType": "uint256",
          "name": "candidatesCount",
          "type": "uint256"
        },
        {
          "internalType": "uint256",
          "name": "votingStart",
          "type": "uint256"
        },
        {
          "internalType": "uint256",
          "name": "votingEnd",
          "type": "uint256"
        },
        {
          "internalType": "uint256",
          "name": "registrationEnd",
          "type": "uint256"
        },
        {
          "internalType": "bool",
          "name": "exists",
          "type": "bool"
        },
        {
          "internalType": "uint256",
          "name": "totalVotes",
          "type": "uint256"
        },
        {
          "internalType": "uint256",
          "name": "winningCandidateId",
          "type": "uint256"
        },
        {
          "internalType": "uint256",
          "name": "winningVoteCount",
          "type": "uint256"
        }
      ],
      "stateMutability": "view",
      "type": "function",
      "constant": true
    },
    {
      "inputs": [
        {
          "internalType": "string",
          "name": "_title",
          "type": "string"
        },
        {
          "internalType": "string[]",
          "name": "_candidateNames",
          "type": "string[]"
        },
        {
          "internalType": "string[]",
          "name": "_photoUrls",
          "type": "string[]"
        },
        {
          "internalType": "string[]",
          "name": "_resumes",
          "type": "string[]"
        },
        {
          "internalType": "string[]",
          "name": "_visions",
          "type": "string[]"
        },
        {
          "internalType": "string[]",
          "name": "_missions",
          "type": "string[]"
        },
        {
          "internalType": "uint256",
          "name": "_votingStart",
          "type": "uint256"
        },
        {
          "internalType": "uint256",
          "name": "_votingEnd",
          "type": "uint256"
        },
        {
          "internalType": "uint256",
          "name": "_registrationEnd",
          "type": "uint256"
        }
      ],
      "name": "createVoting",
      "outputs": [],
      "stateMutability": "nonpayable",
      "type": "function"
    },
    {
      "inputs": [],
      "name": "getAllVotingDetails",
      "outputs": [
        {
          "components": [
            {
              "internalType": "uint256",
              "name": "id",
              "type": "uint256"
            },
            {
              "internalType": "string",
              "name": "title",
              "type": "string"
            },
            {
              "internalType": "uint256",
              "name": "votingStart",
              "type": "uint256"
            },
            {
              "internalType": "uint256",
              "name": "votingEnd",
              "type": "uint256"
            },
            {
              "internalType": "uint256",
              "name": "registrationEnd",
              "type": "uint256"
            },
            {
              "internalType": "uint256",
              "name": "candidatesCount",
              "type": "uint256"
            },
            {
              "internalType": "uint256",
              "name": "totalVotes",
              "type": "uint256"
            }
          ],
          "internalType": "struct EVoting.VotingDetails[]",
          "name": "",
          "type": "tuple[]"
        }
      ],
      "stateMutability": "view",
      "type": "function",
      "constant": true
    },
    {
      "inputs": [
        {
          "internalType": "uint256",
          "name": "_votingId",
          "type": "uint256"
        }
      ],
      "name": "getVotingEnd",
      "outputs": [
        {
          "internalType": "uint256",
          "name": "",
          "type": "uint256"
        }
      ],
      "stateMutability": "view",
      "type": "function",
      "constant": true
    },
    {
      "inputs": [
        {
          "internalType": "uint256",
          "name": "_votingId",
          "type": "uint256"
        },
        {
          "internalType": "bytes32",
          "name": "_emailHash",
          "type": "bytes32"
        }
      ],
      "name": "selfRegister",
      "outputs": [],
      "stateMutability": "nonpayable",
      "type": "function"
    },
    {
      "inputs": [
        {
          "internalType": "uint256",
          "name": "_votingId",
          "type": "uint256"
        },
        {
          "internalType": "uint256",
          "name": "_candidateId",
          "type": "uint256"
        }
      ],
      "name": "vote",
      "outputs": [],
      "stateMutability": "nonpayable",
      "type": "function"
    },
    {
      "inputs": [
        {
          "internalType": "uint256",
          "name": "_votingId",
          "type": "uint256"
        },
        {
          "internalType": "uint256",
          "name": "_candidateId",
          "type": "uint256"
        }
      ],
      "name": "getCandidate",
      "outputs": [
        {
          "internalType": "uint256",
          "name": "",
          "type": "uint256"
        },
        {
          "internalType": "string",
          "name": "",
          "type": "string"
        },
        {
          "internalType": "string",
          "name": "",
          "type": "string"
        },
        {
          "internalType": "string",
          "name": "",
          "type": "string"
        },
        {
          "internalType": "string",
          "name": "",
          "type": "string"
        },
        {
          "internalType": "string",
          "name": "",
          "type": "string"
        },
        {
          "internalType": "uint256",
          "name": "",
          "type": "uint256"
        }
      ],
      "stateMutability": "view",
      "type": "function",
      "constant": true
    },
    {
      "inputs": [
        {
          "internalType": "uint256",
          "name": "_votingId",
          "type": "uint256"
        }
      ],
      "name": "getAllCandidates",
      "outputs": [
        {
          "components": [
            {
              "internalType": "uint256",
              "name": "id",
              "type": "uint256"
            },
            {
              "internalType": "string",
              "name": "name",
              "type": "string"
            },
            {
              "internalType": "string",
              "name": "photoUrl",
              "type": "string"
            },
            {
              "internalType": "string",
              "name": "resume",
              "type": "string"
            },
            {
              "internalType": "string",
              "name": "vision",
              "type": "string"
            },
            {
              "internalType": "string",
              "name": "mission",
              "type": "string"
            },
            {
              "internalType": "uint256",
              "name": "voteCount",
              "type": "uint256"
            }
          ],
          "internalType": "struct EVoting.Candidate[]",
          "name": "",
          "type": "tuple[]"
        }
      ],
      "stateMutability": "view",
      "type": "function",
      "constant": true
    },
    {
      "inputs": [
        {
          "internalType": "uint256",
          "name": "_votingId",
          "type": "uint256"
        }
      ],
      "name": "getWinner",
      "outputs": [
        {
          "internalType": "uint256",
          "name": "",
          "type": "uint256"
        },
        {
          "internalType": "string",
          "name": "",
          "type": "string"
        },
        {
          "internalType": "uint256",
          "name": "",
          "type": "uint256"
        },
        {
          "internalType": "string",
          "name": "",
          "type": "string"
        }
      ],
      "stateMutability": "view",
      "type": "function",
      "constant": true
    },
    {
      "inputs": [],
      "name": "getAllWinners",
      "outputs": [
        {
          "components": [
            {
              "internalType": "uint256",
              "name": "votingId",
              "type": "uint256"
            },
            {
              "internalType": "string",
              "name": "votingTitle",
              "type": "string"
            },
            {
              "internalType": "uint256",
              "name": "winnerId",
              "type": "uint256"
            },
            {
              "internalType": "string",
              "name": "winnerName",
              "type": "string"
            },
            {
              "internalType": "uint256",
              "name": "voteCount",
              "type": "uint256"
            },
            {
              "internalType": "string",
              "name": "photoUrl",
              "type": "string"
            }
          ],
          "internalType": "struct EVoting.Winner[]",
          "name": "",
          "type": "tuple[]"
        }
      ],
      "stateMutability": "view",
      "type": "function",
      "constant": true
    },
    {
      "inputs": [
        {
          "internalType": "uint256",
          "name": "_votingId",
          "type": "uint256"
        }
      ],
      "name": "getVotingDetails",
      "outputs": [
        {
          "internalType": "string",
          "name": "title",
          "type": "string"
        },
        {
          "internalType": "uint256",
          "name": "startTime",
          "type": "uint256"
        },
        {
          "internalType": "uint256",
          "name": "endTime",
          "type": "uint256"
        },
        {
          "internalType": "uint256",
          "name": "registrationEnd",
          "type": "uint256"
        },
        {
          "internalType": "uint256",
          "name": "candidateCount",
          "type": "uint256"
        },
        {
          "internalType": "uint256",
          "name": "totalVotes",
          "type": "uint256"
        }
      ],
      "stateMutability": "view",
      "type": "function",
      "constant": true
    },
    {
      "inputs": [
        {
          "internalType": "uint256",
          "name": "_votingId",
          "type": "uint256"
        },
        {
          "internalType": "address",
          "name": "_voter",
          "type": "address"
        }
      ],
      "name": "isVoterRegistered",
      "outputs": [
        {
          "internalType": "bool",
          "name": "",
          "type": "bool"
        }
      ],
      "stateMutability": "view",
      "type": "function",
      "constant": true
    },
    {
      "inputs": [
        {
          "internalType": "uint256",
          "name": "_votingId",
          "type": "uint256"
        },
        {
          "internalType": "address",
          "name": "_voter",
          "type": "address"
        }
      ],
      "name": "hasVoterVoted",
      "outputs": [
        {
          "internalType": "bool",
          "name": "",
          "type": "bool"
        }
      ],
      "stateMutability": "view",
      "type": "function",
      "constant": true
    },
    {
      "inputs": [
        {
          "internalType": "uint256",
          "name": "_votingId",
          "type": "uint256"
        },
        {
          "internalType": "address",
          "name": "_voter",
          "type": "address"
        }
      ],
      "name": "getVoterEmailHash",
      "outputs": [
        {
          "internalType": "bytes32",
          "name": "",
          "type": "bytes32"
        }
      ],
      "stateMutability": "view",
      "type": "function",
      "constant": true
    },
    {
      "inputs": [
        {
          "internalType": "uint256",
          "name": "_votingId",
          "type": "uint256"
        },
        {
          "internalType": "address",
          "name": "_voter",
          "type": "address"
        }
      ],
      "name": "isRegistered",
      "outputs": [
        {
          "internalType": "bool",
          "name": "",
          "type": "bool"
        }
      ],
      "stateMutability": "view",
      "type": "function",
      "constant": true
    }
  ],
  "bytecode": "0x608060405234801562000010575f80fd5b5060405162002beb38038062002beb8339810160408190526200003391620000a0565b60015f90815560058054336001600160a01b031991821681179092556003805482166001600160a01b03861690811790915560048054909216811790915560405190927f33c981baba081f8fd2c52ac6ad1ea95b6814b4376640f55689051f658472968891a350620000cf565b5f60208284031215620000b1575f80fd5b81516001600160a01b0381168114620000c8575f80fd5b9392505050565b612b0e80620000dd5f395ff3fe608060405234801561000f575f80fd5b506004361061011c575f3560e01c8063a0d96f0c116100a9578063b81f6e181161006e578063b81f6e18146102ae578063c8a25bbf146102c1578063dc6b8627146102d4578063f851a440146102e9578063f9ded646146102fc575f80fd5b8063a0d96f0c14610243578063a598d03c14610256578063b03401231461027f578063b384abef14610292578063b424ab84146102a5575f80fd5b8063394eaa8f116100ef578063394eaa8f1461018b5780634129b2c9146101ae5780634bd46448146101d15780636a5f4444146101f75780637f79099414610222575f80fd5b80630f66c90f1461012057806335a5fab11461013e57806336effcaa1461015357806338413de214610178575b5f80fd5b61012861031c565b604051610135919061220d565b60405180910390f35b61015161014c366004612400565b6104e4565b005b610166610161366004612508565b610aff565b6040516101359695949392919061251f565b61015161018636600461255a565b610bfa565b61019e61019936600461257a565b610d9d565b6040519015158152602001610135565b6101c16101bc366004612508565b610df5565b60405161013594939291906125b3565b6101e46101df36600461255a565b610fcd565b60405161013597969594939291906125ee565b60045461020a906001600160a01b031681565b6040516001600160a01b039091168152602001610135565b610235610230366004612508565b6113be565b604051908152602001610135565b61019e61025136600461257a565b6113f9565b610269610264366004612508565b611450565b6040516101359a99989796959493929190612669565b60035461020a906001600160a01b031681565b6101516102a036600461255a565b611528565b61023560025481565b61019e6102bc36600461257a565b6118ff565b6102356102cf36600461257a565b611956565b6102dc6119aa565b60405161013591906126c4565b60055461020a906001600160a01b031681565b61030f61030a366004612508565b611d26565b6040516101359190612776565b60605f60025467ffffffffffffffff81111561033a5761033a6122b4565b6040519080825280602002602001820160405280156103a557816020015b6103926040518060e001604052805f8152602001606081526020015f81526020015f81526020015f81526020015f81526020015f81525090565b8152602001906001900390816103585790505b50905060015b60025481116104de575f818152600160205260409020600b81015460ff16156104cb576040518060e00160405280825f015481526020018260010180546103f190612853565b80601f016020809104026020016040519081016040528092919081815260200182805461041d90612853565b80156104685780601f1061043f57610100808354040283529160200191610468565b820191905f5260205f20905b81548152906001019060200180831161044b57829003601f168201915b505050918352505060048301546020820152600583015460408201526006830154606082015260038301546080820152600c83015460a090910152836104af600185612899565b815181106104bf576104bf6128ac565b60200260200101819052505b50806104d6816128c0565b9150506103ab565b50919050565b6005546001600160a01b0316331461055a5760405162461bcd60e51b815260206004820152602e60248201527f48616e79612061646d696e2079616e67206461706174206d656c616b756b616e60448201526d103a34b73230b5b0b71034b7349760911b60648201526084015b60405180910390fd5b8282116105ba5760405162461bcd60e51b815260206004820152602860248201527f57616b74752073656c6573616920686172757320736574656c61682077616b746044820152673a9036bab630b49760c11b6064820152608401610551565b8281111561063c5760405162461bcd60e51b815260206004820152604360248201527f57616b7475207265676973747261736920686172757320736562656c756d206160448201527f7461752073616d612064656e67616e2077616b7475206d756c616920766f746960648201526237339760e91b608482015260a401610551565b8651885114801561064e575085518851145b801561065b575084518851145b8015610668575083518851145b6106d25760405162461bcd60e51b815260206004820152603560248201527f41727261792064617461206b616e6469646174206861727573206d656d696c6960448201527435b4903830b73530b733903cb0b7339039b0b6b09760591b6064820152608401610551565b5f88511161072c5760405162461bcd60e51b815260206004820152602160248201527f4d696e696d616c2073617475206b616e64696461742064697065726c756b616e6044820152601760f91b6064820152608401610551565b60028054905f61073b836128c0565b90915550506002545f81815260016020819052604090912091825581016107628b82612926565b50600481018490556005810183905560068101829055600b8101805460ff191660011790555f600c8201819055600d8201819055600e82018190555b89518110156109d657600382018054905f6107b8836128c0565b91905055506040518060e00160405280836003015481526020018b83815181106107e4576107e46128ac565b602002602001015181526020018a8381518110610803576108036128ac565b60200260200101518152602001898381518110610822576108226128ac565b60200260200101518152602001888381518110610841576108416128ac565b60200260200101518152602001878381518110610860576108606128ac565b60209081029190910181015182525f9181018290526003850154825260028501815260409091208251815590820151600182019061089e9082612926565b50604082015160028201906108b39082612926565b50606082015160038201906108c89082612926565b50608082015160048201906108dd9082612926565b5060a082015160058201906108f29082612926565b5060c0820151816006015590505081600301546002547f922183547ad38fb75d2747b5db22aeb9b0cf05f4b25975e17989a220dd5ccea38c848151811061093b5761093b6128ac565b60200260200101518c8581518110610955576109556128ac565b60200260200101518c868151811061096f5761096f6128ac565b60200260200101518c8781518110610989576109896128ac565b60200260200101518c88815181106109a3576109a36128ac565b60200260200101516040516109bc9594939291906129e2565b60405180910390a3806109ce816128c0565b91505061079e565b506002547f9b2a82a8cc59ee37bc113f5b2f5a80dd8a2c0af4ba4f257ea5ce7816b06c73a98260030154604051610a0f91815260200190565b60405180910390a26002547fe5a0ba6d2f5c42fcc94307738c3b6182d23ca70b75b7bdf1aa9377ce257d47d78b868686604051610a4f9493929190612a42565b60405180910390a260025460408051868152602081018690529081018490527fa941a8d45e5f36c4ad6d384f5e93877fc58e6952e792a606b179587d1f6c32e19060600160405180910390a260048054600254604051633275c16d60e21b8152928301526001600160a01b03169063c9d705b4906024015f604051808303815f87803b158015610add575f80fd5b505af1158015610aef573d5f803e3d5ffd5b5050505050505050505050505050565b5f818152600160205260408120600b8101546060929182918291829182919060ff16610b3d5760405162461bcd60e51b815260040161055190612a70565b80600101816004015482600501548360060154846003015485600c0154858054610b6690612853565b80601f0160208091040260200160405190810160405280929190818152602001828054610b9290612853565b8015610bdd5780601f10610bb457610100808354040283529160200191610bdd565b820191905f5260205f20905b815481529060010190602001808311610bc057829003601f168201915b505050505095509650965096509650965096505091939550919395565b5f828152600160205260409020600b81015460ff16610c2b5760405162461bcd60e51b815260040161055190612a70565b8060060154421115610c7f5760405162461bcd60e51b815260206004820152601960248201527f526567697374726173692074656c616820646974757475702e000000000000006044820152606401610551565b335f908152600a8201602052604090205460ff1615610cd85760405162461bcd60e51b815260206004820152601560248201527420b732309039bab230b4103a32b93230b33a30b91760591b6044820152606401610551565b81610d255760405162461bcd60e51b815260206004820152601e60248201527f4861736820656d61696c20746964616b20626f6c6568206b6f736f6e672e00006044820152606401610551565b335f818152600a8301602090815260408083208054600160ff19918216811790925560098701845282852088905560078701845293829020805490941617909255905184815285917fac80ab55aa31256e858d3769a6d44ecaa5b6fe5b9e301db4ffe6cb934811db96910160405180910390a3505050565b5f828152600160205260408120600b81015460ff16610dce5760405162461bcd60e51b815260040161055190612a70565b6001600160a01b0383165f9081526007909101602052604090205460ff1690505b92915050565b5f818152600160205260408120600b810154606091839183919060ff16610e2e5760405162461bcd60e51b815260040161055190612a70565b80600501544211610e815760405162461bcd60e51b815260206004820152601960248201527f566f74696e67206d61736968206265726c616e6773756e672e000000000000006044820152606401610551565b600d8101545f81815260028084016020526040909120600e84015460018201805490939192909101908390610eb590612853565b80601f0160208091040260200160405190810160405280929190818152602001828054610ee190612853565b8015610f2c5780601f10610f0357610100808354040283529160200191610f2c565b820191905f5260205f20905b815481529060010190602001808311610f0f57829003601f168201915b50505050509250808054610f3f90612853565b80601f0160208091040260200160405190810160405280929190818152602001828054610f6b90612853565b8015610fb65780601f10610f8d57610100808354040283529160200191610fb6565b820191905f5260205f20905b815481529060010190602001808311610f9957829003601f168201915b505050505090509450945094509450509193509193565b5f828152600160205260408120600b8101546060918291829182918291879160ff1661100b5760405162461bcd60e51b815260040161055190612a70565b5f8911801561101e575080600301548911155b6110655760405162461bcd60e51b815260206004820152601860248201527724a21035b0b73234b230ba103a34b230b5903b30b634b21760411b6044820152606401610551565b5f816002015f8b81526020019081526020015f206040518060e00160405290815f820154815260200160018201805461109d90612853565b80601f01602080910402602001604051908101604052809291908181526020018280546110c990612853565b80156111145780601f106110eb57610100808354040283529160200191611114565b820191905f5260205f20905b8154815290600101906020018083116110f757829003601f168201915b5050505050815260200160028201805461112d90612853565b80601f016020809104026020016040519081016040528092919081815260200182805461115990612853565b80156111a45780601f1061117b576101008083540402835291602001916111a4565b820191905f5260205f20905b81548152906001019060200180831161118757829003601f168201915b505050505081526020016003820180546111bd90612853565b80601f01602080910402602001604051908101604052809291908181526020018280546111e990612853565b80156112345780601f1061120b57610100808354040283529160200191611234565b820191905f5260205f20905b81548152906001019060200180831161121757829003601f168201915b5050505050815260200160048201805461124d90612853565b80601f016020809104026020016040519081016040528092919081815260200182805461127990612853565b80156112c45780601f1061129b576101008083540402835291602001916112c4565b820191905f5260205f20905b8154815290600101906020018083116112a757829003601f168201915b505050505081526020016005820180546112dd90612853565b80601f016020809104026020016040519081016040528092919081815260200182805461130990612853565b80156113545780601f1061132b57610100808354040283529160200191611354565b820191905f5260205f20905b81548152906001019060200180831161133757829003601f168201915b5050505050815260200160068201548152505090505f8260050154421161137b575f611381565b8160c001515b9050815f015182602001518360400151846060015185608001518660a0015186995099509950995099509950995050505092959891949750929550565b5f818152600160205260408120600b81015460ff166113ef5760405162461bcd60e51b815260040161055190612a70565b6005015492915050565b5f828152600160205260408120600b81015460ff1661142a5760405162461bcd60e51b815260040161055190612a70565b6001600160a01b0383165f9081526008909101602052604090205460ff16905092915050565b600160208190525f91825260409091208054918101805461147090612853565b80601f016020809104026020016040519081016040528092919081815260200182805461149c90612853565b80156114e75780601f106114be576101008083540402835291602001916114e7565b820191905f5260205f20905b8154815290600101906020018083116114ca57829003601f168201915b5050506003840154600485015460058601546006870154600b880154600c890154600d8a0154600e909a015498999598949750929550909360ff909116928a565b5f828152600160205260409020600b81015483919060ff1661155c5760405162461bcd60e51b815260040161055190612a70565b80600401544210158015611574575080600501544211155b6115b65760405162461bcd60e51b81526020600482015260136024820152722b37ba34b733903a34b230b59030b5ba34b31760691b6044820152606401610551565b6115be6121a2565b5f848152600160209081526040808320338452600781019092529091205460ff1661162b5760405162461bcd60e51b815260206004820152601d60248201527f416e64612062756b616e2070656d696c6968207465726461667461722e0000006044820152606401610551565b335f90815260088201602052604090205460ff16156116825760405162461bcd60e51b815260206004820152601360248201527220b732309039bab230b41036b2b6b4b634b41760691b6044820152606401610551565b5f84118015611695575080600301548411155b6116dc5760405162461bcd60e51b815260206004820152601860248201527724a21035b0b73234b230ba103a34b230b5903b30b634b21760411b6044820152606401610551565b600354604051636eb1769f60e11b8152336004820152306024820152670de0b6b3a7640000916001600160a01b03169063dd62ed3e90604401602060405180830381865afa158015611730573d5f803e3d5ffd5b505050506040513d601f19601f820116820180604052508101906117549190612a9b565b10156117ae5760405162461bcd60e51b815260206004820152602360248201527f416c6c6f77616e636520746964616b2063756b757020756e74756b20766f746960448201526237339760e91b6064820152608401610551565b6003546040516323b872dd60e01b81523360048201526001600160a01b0390911660248201819052670de0b6b3a76400006044830152906323b872dd906064016020604051808303815f875af115801561180a573d5f803e3d5ffd5b505050506040513d601f19601f8201168201806040525081019061182e9190612ab2565b50335f9081526008820160209081526040808320805460ff19166001179055868352600284019091528120600601805491611868836128c0565b9091555050600c81018054905f61187e836128c0565b9091555050600e8101545f85815260028301602052604090206006015411156118c1575f848152600282016020526040902060060154600e820155600d81018490555b6040518490339087907f1abe610cf2bf87e57dcc1181fcf5ac0934e843d8344ab9eed6e86c799f62585e905f90a4506118f960015f55565b50505050565b5f828152600160205260408120600b81015460ff166119305760405162461bcd60e51b815260040161055190612a70565b6001600160a01b0383165f908152600a909101602052604090205460ff16905092915050565b5f828152600160205260408120600b81015460ff166119875760405162461bcd60e51b815260040161055190612a70565b6001600160a01b0383165f90815260099091016020526040902054905092915050565b60605f60015b6002548111611a12575f818152600160205260409020600b81015460ff1680156119dd5750806005015442115b80156119ec5750600d81015415155b156119ff57826119fb816128c0565b9350505b5080611a0a816128c0565b9150506119b0565b505f8167ffffffffffffffff811115611a2d57611a2d6122b4565b604051908082528060200260200182016040528015611a9457816020015b611a816040518060c001604052805f8152602001606081526020015f8152602001606081526020015f8152602001606081525090565b815260200190600190039081611a4b5790505b5090505f60015b6002548111611d1d575f818152600160205260409020600b81015460ff168015611ac85750806005015442115b8015611ad75750600d81015415155b15611d0a576040518060c00160405280825f01548152602001826001018054611aff90612853565b80601f0160208091040260200160405190810160405280929190818152602001828054611b2b90612853565b8015611b765780601f10611b4d57610100808354040283529160200191611b76565b820191905f5260205f20905b815481529060010190602001808311611b5957829003601f168201915b5050505050815260200182600d01548152602001826002015f84600d015481526020019081526020015f206001018054611baf90612853565b80601f0160208091040260200160405190810160405280929190818152602001828054611bdb90612853565b8015611c265780601f10611bfd57610100808354040283529160200191611c26565b820191905f5260205f20905b815481529060010190602001808311611c0957829003601f168201915b5050505050815260200182600e01548152602001826002015f84600d015481526020019081526020015f206002018054611c5f90612853565b80601f0160208091040260200160405190810160405280929190818152602001828054611c8b90612853565b8015611cd65780601f10611cad57610100808354040283529160200191611cd6565b820191905f5260205f20905b815481529060010190602001808311611cb957829003601f168201915b5050505050815250848481518110611cf057611cf06128ac565b60200260200101819052508280611d06906128c0565b9350505b5080611d15816128c0565b915050611a9b565b50909392505050565b5f818152600160205260409020600b8101546060919060ff16611d5b5760405162461bcd60e51b815260040161055190612a70565b5f816003015467ffffffffffffffff811115611d7957611d796122b4565b604051908082528060200260200182016040528015611de857816020015b611dd56040518060e001604052805f815260200160608152602001606081526020016060815260200160608152602001606081526020015f81525090565b815260200190600190039081611d975790505b50905060015b8260030154811161219a57826002015f8281526020019081526020015f206040518060e00160405290815f8201548152602001600182018054611e3090612853565b80601f0160208091040260200160405190810160405280929190818152602001828054611e5c90612853565b8015611ea75780601f10611e7e57610100808354040283529160200191611ea7565b820191905f5260205f20905b815481529060010190602001808311611e8a57829003601f168201915b50505050508152602001600282018054611ec090612853565b80601f0160208091040260200160405190810160405280929190818152602001828054611eec90612853565b8015611f375780601f10611f0e57610100808354040283529160200191611f37565b820191905f5260205f20905b815481529060010190602001808311611f1a57829003601f168201915b50505050508152602001600382018054611f5090612853565b80601f0160208091040260200160405190810160405280929190818152602001828054611f7c90612853565b8015611fc75780601f10611f9e57610100808354040283529160200191611fc7565b820191905f5260205f20905b815481529060010190602001808311611faa57829003601f168201915b50505050508152602001600482018054611fe090612853565b80601f016020809104026020016040519081016040528092919081815260200182805461200c90612853565b80156120575780601f1061202e57610100808354040283529160200191612057565b820191905f5260205f20905b81548152906001019060200180831161203a57829003601f168201915b5050505050815260200160058201805461207090612853565b80601f016020809104026020016040519081016040528092919081815260200182805461209c90612853565b80156120e75780601f106120be576101008083540402835291602001916120e7565b820191905f5260205f20905b8154815290600101906020018083116120ca57829003601f168201915b50505050508152602001600682015481525050826001836121089190612899565b81518110612118576121186128ac565b602002602001018190525082600501544211612134575f61215d565b81612140600183612899565b81518110612150576121506128ac565b602002602001015160c001515b82612169600184612899565b81518110612179576121796128ac565b602090810291909101015160c0015280612192816128c0565b915050611dee565b509392505050565b60025f54036121c457604051633ee5aeb560e01b815260040160405180910390fd5b60025f55565b5f81518084525f5b818110156121ee576020818501810151868301820152016121d2565b505f602082860101526020601f19601f83011685010191505092915050565b5f6020808301818452808551808352604092508286019150828160051b8701018488015f5b838110156122a657603f19898403018552815160e08151855288820151818a870152612260828701826121ca565b838a0151878b0152606080850151908801526080808501519088015260a0808501519088015260c093840151939096019290925250509386019390860190600101612232565b509098975050505050505050565b634e487b7160e01b5f52604160045260245ffd5b604051601f8201601f1916810167ffffffffffffffff811182821017156122f1576122f16122b4565b604052919050565b5f82601f830112612308575f80fd5b813567ffffffffffffffff811115612322576123226122b4565b612335601f8201601f19166020016122c8565b818152846020838601011115612349575f80fd5b816020850160208301375f918101602001919091529392505050565b5f82601f830112612374575f80fd5b8135602067ffffffffffffffff80831115612391576123916122b4565b8260051b6123a08382016122c8565b93845285810183019383810190888611156123b9575f80fd5b84880192505b858310156123f4578235848111156123d6575f8081fd5b6123e48a87838c01016122f9565b83525091840191908401906123bf565b98975050505050505050565b5f805f805f805f805f6101208a8c031215612419575f80fd5b893567ffffffffffffffff80821115612430575f80fd5b61243c8d838e016122f9565b9a5060208c0135915080821115612451575f80fd5b61245d8d838e01612365565b995060408c0135915080821115612472575f80fd5b61247e8d838e01612365565b985060608c0135915080821115612493575f80fd5b61249f8d838e01612365565b975060808c01359150808211156124b4575f80fd5b6124c08d838e01612365565b965060a08c01359150808211156124d5575f80fd5b506124e28c828d01612365565b94505060c08a0135925060e08a013591506101008a013590509295985092959850929598565b5f60208284031215612518575f80fd5b5035919050565b60c081525f61253160c08301896121ca565b60208301979097525060408101949094526060840192909252608083015260a090910152919050565b5f806040838503121561256b575f80fd5b50508035926020909101359150565b5f806040838503121561258b575f80fd5b8235915060208301356001600160a01b03811681146125a8575f80fd5b809150509250929050565b848152608060208201525f6125cb60808301866121ca565b84604084015282810360608401526125e381856121ca565b979650505050505050565b87815260e060208201525f61260660e08301896121ca565b828103604084015261261881896121ca565b9050828103606084015261262c81886121ca565b9050828103608084015261264081876121ca565b905082810360a084015261265481866121ca565b9150508260c083015298975050505050505050565b5f6101408c83528060208401526126828184018d6121ca565b604084019b909b5250506060810197909752608087019590955260a086019390935290151560c085015260e08401526101008301526101209091015292915050565b5f6020808301818452808551808352604092508286019150828160051b8701018488015f5b838110156122a657603f19898403018552815160c08151855288820151818a870152612717828701826121ca565b91505087820151888601526060808301518683038288015261273983826121ca565b92505050608080830151818701525060a0808301519250858203818701525061276281836121ca565b9689019694505050908601906001016126e9565b5f6020808301818452808551808352604092508286019150828160051b8701018488015f5b838110156122a657603f19898403018552815160e08151855288820151818a8701526127c9828701826121ca565b91505087820151858203898701526127e182826121ca565b915050606080830151868303828801526127fb83826121ca565b925050506080808301518683038288015261281683826121ca565b9250505060a0808301518683038288015261283183826121ca565b60c094850151979094019690965250509487019492509086019060010161279b565b600181811c9082168061286757607f821691505b6020821081036104de57634e487b7160e01b5f52602260045260245ffd5b634e487b7160e01b5f52601160045260245ffd5b81810381811115610def57610def612885565b634e487b7160e01b5f52603260045260245ffd5b5f600182016128d1576128d1612885565b5060010190565b601f821115612921575f81815260208120601f850160051c810160208610156128fe5750805b601f850160051c820191505b8181101561291d5782815560010161290a565b5050505b505050565b815167ffffffffffffffff811115612940576129406122b4565b6129548161294e8454612853565b846128d8565b602080601f831160018114612987575f84156129705750858301515b5f19600386901b1c1916600185901b17855561291d565b5f85815260208120601f198616915b828110156129b557888601518255948401946001909101908401612996565b50858210156129d257878501515f19600388901b60f8161c191681555b5050505050600190811b01905550565b60a081525f6129f460a08301886121ca565b8281036020840152612a0681886121ca565b90508281036040840152612a1a81876121ca565b90508281036060840152612a2e81866121ca565b905082810360808401526123f481856121ca565b608081525f612a5460808301876121ca565b6020830195909552506040810192909252606090910152919050565b6020808252601190820152702b37ba34b733903a34b230b59030b2309760791b604082015260600190565b5f60208284031215612aab575f80fd5b5051919050565b5f60208284031215612ac2575f80fd5b81518015158114612ad1575f80fd5b939250505056fea2646970667358221220195722f64b01cbd2aa5d6d1f440ee80408131781793b710ed5e215b2a2a1a35364736f6c63430008140033",
  "immutableReferences": {},
  "source": "// SPDX-License-Identifier: MIT\r\npragma solidity ^0.8.0;\r\n\r\nimport \"@openzeppelin/contracts/token/ERC20/IERC20.sol\";\r\nimport \"@openzeppelin/contracts/utils/ReentrancyGuard.sol\";\r\n\r\ninterface IVotingToken {\r\n    function setActiveVotingId(uint votingId) external;\r\n}\r\n\r\ncontract EVoting is ReentrancyGuard {\r\n    struct Candidate {\r\n        uint id;\r\n        string name;\r\n        string photoUrl;\r\n        string resume;\r\n        string vision;\r\n        string mission;\r\n        uint voteCount;\r\n    }\r\n\r\n    struct Voting {\r\n        uint id;\r\n        string title;\r\n        mapping(uint => Candidate) candidates;\r\n        uint candidatesCount;\r\n        uint votingStart;\r\n        uint votingEnd;\r\n        uint registrationEnd;\r\n        mapping(address => bool) voters;\r\n        mapping(address => bool) hasVoted;\r\n        mapping(address => bytes32) voterEmailHashes;\r\n        mapping(address => bool) isRegistered;\r\n        bool exists;\r\n        uint totalVotes;\r\n        uint winningCandidateId;\r\n        uint winningVoteCount;\r\n    }\r\n\r\n    struct VotingDetails {\r\n        uint id;\r\n        string title;\r\n        uint votingStart;\r\n        uint votingEnd;\r\n        uint registrationEnd;\r\n        uint candidatesCount;\r\n        uint totalVotes;\r\n    }\r\n\r\n    struct Winner {\r\n        uint votingId;\r\n        string votingTitle;\r\n        uint winnerId;\r\n        string winnerName;\r\n        uint voteCount;\r\n        string photoUrl;\r\n    }\r\n\r\n    mapping(uint => Voting) public votings;\r\n    uint public votingCount;\r\n    IERC20 public votingToken;\r\n    IVotingToken public votingTokenContract;\r\n    address public admin;\r\n\r\n    event VotingCreated(uint indexed votingId, string title, uint startTime, uint endTime, uint registrationEnd);\r\n    event CandidateAdded(uint indexed votingId, uint indexed candidateId, string name, string photoUrl, string resume, string vision, string mission);\r\n    event CandidatesInitialized(uint indexed votingId, uint candidatesCount);\r\n    event VoterRegistered(uint indexed votingId, address indexed voter, bytes32 emailHash);\r\n    event Voted(uint indexed votingId, address indexed voter, uint indexed candidateId);\r\n    event VotingTimeSet(uint indexed votingId, uint startTime, uint endTime, uint registrationEnd);\r\n    event ContractDeployed(address indexed admin, address indexed votingToken);\r\n\r\n    modifier onlyAdmin() {\r\n        require(msg.sender == admin, \"Hanya admin yang dapat melakukan tindakan ini.\");\r\n        _;\r\n    }\r\n\r\n    modifier onlyDuringVoting(uint _votingId) {\r\n        Voting storage voting = votings[_votingId];\r\n        require(voting.exists, \"Voting tidak ada.\");\r\n        require(block.timestamp >= voting.votingStart && block.timestamp <= voting.votingEnd, \"Voting tidak aktif.\");\r\n        _;\r\n    }\r\n\r\n    constructor(IERC20 _votingToken) {\r\n        admin = msg.sender;\r\n        votingToken = _votingToken;\r\n        votingTokenContract = IVotingToken(address(_votingToken));\r\n        emit ContractDeployed(msg.sender, address(_votingToken));\r\n    }\r\n\r\n    function createVoting(\r\n        string memory _title,\r\n        string[] memory _candidateNames,\r\n        string[] memory _photoUrls,\r\n        string[] memory _resumes,\r\n        string[] memory _visions,\r\n        string[] memory _missions,\r\n        uint _votingStart,\r\n        uint _votingEnd,\r\n        uint _registrationEnd\r\n    ) public onlyAdmin {\r\n        require(_votingEnd > _votingStart, \"Waktu selesai harus setelah waktu mulai.\");\r\n        require(_registrationEnd <= _votingStart, \"Waktu registrasi harus sebelum atau sama dengan waktu mulai voting.\");\r\n        require(_candidateNames.length == _photoUrls.length &&\r\n                _candidateNames.length == _resumes.length &&\r\n                _candidateNames.length == _visions.length &&\r\n                _candidateNames.length == _missions.length, \"Array data kandidat harus memiliki panjang yang sama.\");\r\n        require(_candidateNames.length > 0, \"Minimal satu kandidat diperlukan.\");\r\n\r\n        votingCount++;\r\n        Voting storage newVoting = votings[votingCount];\r\n        newVoting.id = votingCount;\r\n        newVoting.title = _title;\r\n        newVoting.votingStart = _votingStart;\r\n        newVoting.votingEnd = _votingEnd;\r\n        newVoting.registrationEnd = _registrationEnd;\r\n        newVoting.exists = true;\r\n        newVoting.totalVotes = 0;\r\n        newVoting.winningCandidateId = 0;\r\n        newVoting.winningVoteCount = 0;\r\n\r\n        for (uint i = 0; i < _candidateNames.length; i++) {\r\n            newVoting.candidatesCount++;\r\n            newVoting.candidates[newVoting.candidatesCount] = Candidate(\r\n                newVoting.candidatesCount,\r\n                _candidateNames[i],\r\n                _photoUrls[i],\r\n                _resumes[i],\r\n                _visions[i],\r\n                _missions[i],\r\n                0\r\n            );\r\n            emit CandidateAdded(votingCount, newVoting.candidatesCount, _candidateNames[i], _photoUrls[i], _resumes[i], _visions[i], _missions[i]);\r\n        }\r\n\r\n        emit CandidatesInitialized(votingCount, newVoting.candidatesCount);\r\n        emit VotingCreated(votingCount, _title, _votingStart, _votingEnd, _registrationEnd);\r\n        emit VotingTimeSet(votingCount, _votingStart, _votingEnd, _registrationEnd);\r\n\r\n        votingTokenContract.setActiveVotingId(votingCount);\r\n    }\r\n\r\n    function getAllVotingDetails() public view returns (VotingDetails[] memory) {\r\n        VotingDetails[] memory allDetails = new VotingDetails[](votingCount);\r\n        for (uint i = 1; i <= votingCount; i++) {\r\n            Voting storage voting = votings[i];\r\n            if (voting.exists) {\r\n                allDetails[i-1] = VotingDetails({\r\n                    id: voting.id,\r\n                    title: voting.title,\r\n                    votingStart: voting.votingStart,\r\n                    votingEnd: voting.votingEnd,\r\n                    registrationEnd: voting.registrationEnd,\r\n                    candidatesCount: voting.candidatesCount,\r\n                    totalVotes: voting.totalVotes\r\n                });\r\n            }\r\n        }\r\n        return allDetails;\r\n    }\r\n\r\n    // Fungsi baru untuk mendapatkan votingEnd dari votingId tertentu\r\n    function getVotingEnd(uint _votingId) public view returns (uint) {\r\n        Voting storage voting = votings[_votingId];\r\n        require(voting.exists, \"Voting tidak ada.\");\r\n        return voting.votingEnd;\r\n    }\r\n\r\n    function selfRegister(uint _votingId, bytes32 _emailHash) public {\r\n        Voting storage voting = votings[_votingId];\r\n        require(voting.exists, \"Voting tidak ada.\");\r\n        require(block.timestamp <= voting.registrationEnd, \"Registrasi telah ditutup.\");\r\n        require(!voting.isRegistered[msg.sender], \"Anda sudah terdaftar.\");\r\n        require(_emailHash != bytes32(0), \"Hash email tidak boleh kosong.\");\r\n\r\n        voting.isRegistered[msg.sender] = true;\r\n        voting.voterEmailHashes[msg.sender] = _emailHash;\r\n        voting.voters[msg.sender] = true;\r\n        emit VoterRegistered(_votingId, msg.sender, _emailHash);\r\n    }\r\n\r\n    function vote(uint _votingId, uint _candidateId) public onlyDuringVoting(_votingId) nonReentrant {\r\n        Voting storage voting = votings[_votingId];\r\n        require(voting.voters[msg.sender], \"Anda bukan pemilih terdaftar.\");\r\n        require(!voting.hasVoted[msg.sender], \"Anda sudah memilih.\");\r\n        require(_candidateId > 0 && _candidateId <= voting.candidatesCount, \"ID kandidat tidak valid.\");\r\n        require(votingToken.allowance(msg.sender, address(this)) >= 1 * 10 ** 18, \"Allowance tidak cukup untuk voting.\");\r\n\r\n        votingToken.transferFrom(msg.sender, address(votingToken), 1 * 10 ** 18);\r\n\r\n        voting.hasVoted[msg.sender] = true;\r\n        voting.candidates[_candidateId].voteCount++;\r\n        voting.totalVotes++;\r\n\r\n        if (voting.candidates[_candidateId].voteCount > voting.winningVoteCount) {\r\n            voting.winningVoteCount = voting.candidates[_candidateId].voteCount;\r\n            voting.winningCandidateId = _candidateId;\r\n        }\r\n\r\n        emit Voted(_votingId, msg.sender, _candidateId);\r\n    }\r\n\r\n    function getCandidate(uint _votingId, uint _candidateId) public view returns (uint, string memory, string memory, string memory, string memory, string memory, uint) {\r\n        Voting storage voting = votings[_votingId];\r\n        require(voting.exists, \"Voting tidak ada.\");\r\n        require(_candidateId > 0 && _candidateId <= voting.candidatesCount, \"ID kandidat tidak valid.\");\r\n        Candidate memory candidate = voting.candidates[_candidateId];\r\n\r\n        uint displayedVoteCount = block.timestamp > voting.votingEnd ? candidate.voteCount : 0;\r\n\r\n        return (candidate.id, candidate.name, candidate.photoUrl, candidate.resume, candidate.vision, candidate.mission, displayedVoteCount);\r\n    }\r\n\r\n    function getAllCandidates(uint _votingId) public view returns (Candidate[] memory) {\r\n        Voting storage voting = votings[_votingId];\r\n        require(voting.exists, \"Voting tidak ada.\");\r\n        Candidate[] memory candidates = new Candidate[](voting.candidatesCount);\r\n        for (uint i = 1; i <= voting.candidatesCount; i++) {\r\n            candidates[i-1] = voting.candidates[i];\r\n            candidates[i-1].voteCount = block.timestamp > voting.votingEnd ? candidates[i-1].voteCount : 0;\r\n        }\r\n        return candidates;\r\n    }\r\n\r\n    function getWinner(uint _votingId) public view returns (uint, string memory, uint, string memory) {\r\n        Voting storage voting = votings[_votingId];\r\n        require(voting.exists, \"Voting tidak ada.\");\r\n        require(block.timestamp > voting.votingEnd, \"Voting masih berlangsung.\");\r\n\r\n        return (\r\n            voting.winningCandidateId,\r\n            voting.candidates[voting.winningCandidateId].name,\r\n            voting.winningVoteCount,\r\n            voting.candidates[voting.winningCandidateId].photoUrl\r\n        );\r\n    }\r\n\r\n    // Fungsi baru untuk mendapatkan semua pemenang dari voting yang sudah selesai\r\n    function getAllWinners() public view returns (Winner[] memory) {\r\n        // Hitung jumlah voting yang sudah selesai dan memiliki pemenang\r\n        uint finishedCount = 0;\r\n        for (uint i = 1; i <= votingCount; i++) {\r\n            Voting storage voting = votings[i];\r\n            if (voting.exists && block.timestamp > voting.votingEnd && voting.winningCandidateId != 0) {\r\n                finishedCount++;\r\n            }\r\n        }\r\n\r\n        // Buat array untuk menyimpan pemenang\r\n        Winner[] memory winners = new Winner[](finishedCount);\r\n        uint index = 0;\r\n\r\n        // Isi array dengan data pemenang\r\n        for (uint i = 1; i <= votingCount; i++) {\r\n            Voting storage voting = votings[i];\r\n            if (voting.exists && block.timestamp > voting.votingEnd && voting.winningCandidateId != 0) {\r\n                winners[index] = Winner({\r\n                    votingId: voting.id,\r\n                    votingTitle: voting.title,\r\n                    winnerId: voting.winningCandidateId,\r\n                    winnerName: voting.candidates[voting.winningCandidateId].name,\r\n                    voteCount: voting.winningVoteCount,\r\n                    photoUrl: voting.candidates[voting.winningCandidateId].photoUrl\r\n                });\r\n                index++;\r\n            }\r\n        }\r\n\r\n        return winners;\r\n    }\r\n\r\n    function getVotingDetails(uint _votingId) public view returns (string memory title, uint startTime, uint endTime, uint registrationEnd, uint candidateCount, uint totalVotes) {\r\n        Voting storage voting = votings[_votingId];\r\n        require(voting.exists, \"Voting tidak ada.\");\r\n\r\n        return (voting.title, voting.votingStart, voting.votingEnd, voting.registrationEnd, voting.candidatesCount, voting.totalVotes);\r\n    }\r\n\r\n    function isVoterRegistered(uint _votingId, address _voter) public view returns (bool) {\r\n        Voting storage voting = votings[_votingId];\r\n        require(voting.exists, \"Voting tidak ada.\");\r\n        return voting.voters[_voter];\r\n    }\r\n\r\n    function hasVoterVoted(uint _votingId, address _voter) public view returns (bool) {\r\n        Voting storage voting = votings[_votingId];\r\n        require(voting.exists, \"Voting tidak ada.\");\r\n        return voting.hasVoted[_voter];\r\n    }\r\n\r\n    function getVoterEmailHash(uint _votingId, address _voter) public view returns (bytes32) {\r\n        Voting storage voting = votings[_votingId];\r\n        require(voting.exists, \"Voting tidak ada.\");\r\n        return voting.voterEmailHashes[_voter];\r\n    }\r\n\r\n    function isRegistered(uint _votingId, address _voter) public view returns (bool) {\r\n        Voting storage voting = votings[_votingId];\r\n        require(voting.exists, \"Voting tidak ada.\");\r\n        return voting.isRegistered[_voter];\r\n    }\r\n}",
  "sourcePath": "C:\\Users\\ASUS\\Documents\\TUGAS AKHIR\\truffle\\contracts\\Evoting.sol",
  "compiler": {
    "name": "solc",
    "version": "0.8.20+commit.a1b79de6.Emscripten.clang"
  },
  "schemaVersion": "3.4.13",
  "updatedAt": "2025-05-26T09:04:11.943Z",
  "networkType": "ethereum",
  "devdoc": {
    "errors": {
      "ReentrancyGuardReentrantCall()": [
        {
          "details": "Unauthorized reentrant call."
        }
      ]
    },
    "kind": "dev",
    "methods": {},
    "version": 1
  },
  "userdoc": {
    "kind": "user",
    "methods": {},
    "version": 1
  }
}