{
  "contractName": "VotingToken",
  "abi": [
    {
      "inputs": [
        {
          "internalType": "address",
          "name": "_eVotingContract",
          "type": "address"
        }
      ],
      "stateMutability": "nonpayable",
      "type": "constructor"
    },
    {
      "inputs": [
        {
          "internalType": "address",
          "name": "spender",
          "type": "address"
        },
        {
          "internalType": "uint256",
          "name": "allowance",
          "type": "uint256"
        },
        {
          "internalType": "uint256",
          "name": "needed",
          "type": "uint256"
        }
      ],
      "name": "ERC20InsufficientAllowance",
      "type": "error"
    },
    {
      "inputs": [
        {
          "internalType": "address",
          "name": "sender",
          "type": "address"
        },
        {
          "internalType": "uint256",
          "name": "balance",
          "type": "uint256"
        },
        {
          "internalType": "uint256",
          "name": "needed",
          "type": "uint256"
        }
      ],
      "name": "ERC20InsufficientBalance",
      "type": "error"
    },
    {
      "inputs": [
        {
          "internalType": "address",
          "name": "approver",
          "type": "address"
        }
      ],
      "name": "ERC20InvalidApprover",
      "type": "error"
    },
    {
      "inputs": [
        {
          "internalType": "address",
          "name": "receiver",
          "type": "address"
        }
      ],
      "name": "ERC20InvalidReceiver",
      "type": "error"
    },
    {
      "inputs": [
        {
          "internalType": "address",
          "name": "sender",
          "type": "address"
        }
      ],
      "name": "ERC20InvalidSender",
      "type": "error"
    },
    {
      "inputs": [
        {
          "internalType": "address",
          "name": "spender",
          "type": "address"
        }
      ],
      "name": "ERC20InvalidSpender",
      "type": "error"
    },
    {
      "inputs": [
        {
          "internalType": "address",
          "name": "owner",
          "type": "address"
        }
      ],
      "name": "OwnableInvalidOwner",
      "type": "error"
    },
    {
      "inputs": [
        {
          "internalType": "address",
          "name": "account",
          "type": "address"
        }
      ],
      "name": "OwnableUnauthorizedAccount",
      "type": "error"
    },
    {
      "anonymous": false,
      "inputs": [
        {
          "indexed": true,
          "internalType": "uint256",
          "name": "votingId",
          "type": "uint256"
        }
      ],
      "name": "ActiveVotingIdSet",
      "type": "event"
    },
    {
      "anonymous": false,
      "inputs": [
        {
          "indexed": true,
          "internalType": "address",
          "name": "owner",
          "type": "address"
        },
        {
          "indexed": true,
          "internalType": "address",
          "name": "spender",
          "type": "address"
        },
        {
          "indexed": false,
          "internalType": "uint256",
          "name": "value",
          "type": "uint256"
        }
      ],
      "name": "Approval",
      "type": "event"
    },
    {
      "anonymous": false,
      "inputs": [
        {
          "indexed": true,
          "internalType": "address",
          "name": "user",
          "type": "address"
        },
        {
          "indexed": true,
          "internalType": "uint256",
          "name": "votingId",
          "type": "uint256"
        }
      ],
      "name": "ClaimReset",
      "type": "event"
    },
    {
      "anonymous": false,
      "inputs": [
        {
          "indexed": false,
          "internalType": "bool",
          "name": "status",
          "type": "bool"
        }
      ],
      "name": "ClaimStatusChanged",
      "type": "event"
    },
    {
      "anonymous": false,
      "inputs": [
        {
          "indexed": true,
          "internalType": "address",
          "name": "user",
          "type": "address"
        },
        {
          "indexed": true,
          "internalType": "uint256",
          "name": "votingId",
          "type": "uint256"
        },
        {
          "indexed": false,
          "internalType": "uint256",
          "name": "amount",
          "type": "uint256"
        }
      ],
      "name": "ClaimedVotingToken",
      "type": "event"
    },
    {
      "anonymous": false,
      "inputs": [
        {
          "indexed": true,
          "internalType": "address",
          "name": "eVotingContract",
          "type": "address"
        }
      ],
      "name": "EVotingContractSet",
      "type": "event"
    },
    {
      "anonymous": false,
      "inputs": [
        {
          "indexed": true,
          "internalType": "address",
          "name": "previousOwner",
          "type": "address"
        },
        {
          "indexed": true,
          "internalType": "address",
          "name": "newOwner",
          "type": "address"
        }
      ],
      "name": "OwnershipTransferred",
      "type": "event"
    },
    {
      "anonymous": false,
      "inputs": [
        {
          "indexed": true,
          "internalType": "address",
          "name": "from",
          "type": "address"
        },
        {
          "indexed": true,
          "internalType": "address",
          "name": "to",
          "type": "address"
        },
        {
          "indexed": false,
          "internalType": "uint256",
          "name": "value",
          "type": "uint256"
        }
      ],
      "name": "Transfer",
      "type": "event"
    },
    {
      "anonymous": false,
      "inputs": [
        {
          "indexed": true,
          "internalType": "address",
          "name": "from",
          "type": "address"
        },
        {
          "indexed": true,
          "internalType": "address",
          "name": "to",
          "type": "address"
        },
        {
          "indexed": false,
          "internalType": "uint256",
          "name": "amount",
          "type": "uint256"
        }
      ],
      "name": "TransferRestricted",
      "type": "event"
    },
    {
      "inputs": [],
      "name": "activeVotingId",
      "outputs": [
        {
          "internalType": "uint256",
          "name": "",
          "type": "uint256"
        }
      ],
      "stateMutability": "view",
      "type": "function",
      "constant": true
    },
    {
      "inputs": [
        {
          "internalType": "address",
          "name": "owner",
          "type": "address"
        },
        {
          "internalType": "address",
          "name": "spender",
          "type": "address"
        }
      ],
      "name": "allowance",
      "outputs": [
        {
          "internalType": "uint256",
          "name": "",
          "type": "uint256"
        }
      ],
      "stateMutability": "view",
      "type": "function",
      "constant": true
    },
    {
      "inputs": [
        {
          "internalType": "address",
          "name": "spender",
          "type": "address"
        },
        {
          "internalType": "uint256",
          "name": "value",
          "type": "uint256"
        }
      ],
      "name": "approve",
      "outputs": [
        {
          "internalType": "bool",
          "name": "",
          "type": "bool"
        }
      ],
      "stateMutability": "nonpayable",
      "type": "function"
    },
    {
      "inputs": [
        {
          "internalType": "address",
          "name": "account",
          "type": "address"
        }
      ],
      "name": "balanceOf",
      "outputs": [
        {
          "internalType": "uint256",
          "name": "",
          "type": "uint256"
        }
      ],
      "stateMutability": "view",
      "type": "function",
      "constant": true
    },
    {
      "inputs": [],
      "name": "claimActive",
      "outputs": [
        {
          "internalType": "bool",
          "name": "",
          "type": "bool"
        }
      ],
      "stateMutability": "view",
      "type": "function",
      "constant": true
    },
    {
      "inputs": [],
      "name": "claimAmount",
      "outputs": [
        {
          "internalType": "uint256",
          "name": "",
          "type": "uint256"
        }
      ],
      "stateMutability": "view",
      "type": "function",
      "constant": true
    },
    {
      "inputs": [],
      "name": "decimals",
      "outputs": [
        {
          "internalType": "uint8",
          "name": "",
          "type": "uint8"
        }
      ],
      "stateMutability": "view",
      "type": "function",
      "constant": true
    },
    {
      "inputs": [],
      "name": "eVotingAddress",
      "outputs": [
        {
          "internalType": "address",
          "name": "",
          "type": "address"
        }
      ],
      "stateMutability": "view",
      "type": "function",
      "constant": true
    },
    {
      "inputs": [],
      "name": "eVotingContract",
      "outputs": [
        {
          "internalType": "contract IEVoting",
          "name": "",
          "type": "address"
        }
      ],
      "stateMutability": "view",
      "type": "function",
      "constant": true
    },
    {
      "inputs": [
        {
          "internalType": "uint256",
          "name": "",
          "type": "uint256"
        },
        {
          "internalType": "address",
          "name": "",
          "type": "address"
        }
      ],
      "name": "hasClaimed",
      "outputs": [
        {
          "internalType": "bool",
          "name": "",
          "type": "bool"
        }
      ],
      "stateMutability": "view",
      "type": "function",
      "constant": true
    },
    {
      "inputs": [],
      "name": "name",
      "outputs": [
        {
          "internalType": "string",
          "name": "",
          "type": "string"
        }
      ],
      "stateMutability": "view",
      "type": "function",
      "constant": true
    },
    {
      "inputs": [],
      "name": "owner",
      "outputs": [
        {
          "internalType": "address",
          "name": "",
          "type": "address"
        }
      ],
      "stateMutability": "view",
      "type": "function",
      "constant": true
    },
    {
      "inputs": [],
      "name": "renounceOwnership",
      "outputs": [],
      "stateMutability": "nonpayable",
      "type": "function"
    },
    {
      "inputs": [],
      "name": "symbol",
      "outputs": [
        {
          "internalType": "string",
          "name": "",
          "type": "string"
        }
      ],
      "stateMutability": "view",
      "type": "function",
      "constant": true
    },
    {
      "inputs": [],
      "name": "totalSupply",
      "outputs": [
        {
          "internalType": "uint256",
          "name": "",
          "type": "uint256"
        }
      ],
      "stateMutability": "view",
      "type": "function",
      "constant": true
    },
    {
      "inputs": [
        {
          "internalType": "address",
          "name": "to",
          "type": "address"
        },
        {
          "internalType": "uint256",
          "name": "value",
          "type": "uint256"
        }
      ],
      "name": "transfer",
      "outputs": [
        {
          "internalType": "bool",
          "name": "",
          "type": "bool"
        }
      ],
      "stateMutability": "nonpayable",
      "type": "function"
    },
    {
      "inputs": [
        {
          "internalType": "address",
          "name": "from",
          "type": "address"
        },
        {
          "internalType": "address",
          "name": "to",
          "type": "address"
        },
        {
          "internalType": "uint256",
          "name": "value",
          "type": "uint256"
        }
      ],
      "name": "transferFrom",
      "outputs": [
        {
          "internalType": "bool",
          "name": "",
          "type": "bool"
        }
      ],
      "stateMutability": "nonpayable",
      "type": "function"
    },
    {
      "inputs": [
        {
          "internalType": "address",
          "name": "newOwner",
          "type": "address"
        }
      ],
      "name": "transferOwnership",
      "outputs": [],
      "stateMutability": "nonpayable",
      "type": "function"
    },
    {
      "inputs": [
        {
          "internalType": "address",
          "name": "_eVotingContract",
          "type": "address"
        }
      ],
      "name": "setEVotingContract",
      "outputs": [],
      "stateMutability": "nonpayable",
      "type": "function"
    },
    {
      "inputs": [
        {
          "internalType": "uint256",
          "name": "_votingId",
          "type": "uint256"
        }
      ],
      "name": "setActiveVotingId",
      "outputs": [],
      "stateMutability": "nonpayable",
      "type": "function"
    },
    {
      "inputs": [
        {
          "internalType": "uint256",
          "name": "_votingId",
          "type": "uint256"
        }
      ],
      "name": "claimVotingTokens",
      "outputs": [],
      "stateMutability": "nonpayable",
      "type": "function"
    },
    {
      "inputs": [
        {
          "internalType": "bool",
          "name": "status",
          "type": "bool"
        }
      ],
      "name": "toggleClaim",
      "outputs": [],
      "stateMutability": "nonpayable",
      "type": "function"
    },
    {
      "inputs": [
        {
          "internalType": "address",
          "name": "user",
          "type": "address"
        },
        {
          "internalType": "uint256",
          "name": "_votingId",
          "type": "uint256"
        }
      ],
      "name": "resetClaimStatus",
      "outputs": [],
      "stateMutability": "nonpayable",
      "type": "function"
    },
    {
      "inputs": [
        {
          "internalType": "uint256",
          "name": "_claimAmount",
          "type": "uint256"
        }
      ],
      "name": "setClaimAmount",
      "outputs": [],
      "stateMutability": "nonpayable",
      "type": "function"
    }
  ],
  "bytecode": "0x6080604052670de0b6b3a76400006006556008805460ff1916600117905534801562000029575f80fd5b50604051620016a1380380620016a18339810160408190526200004c9162000449565b336040518060400160405280600b81526020016a2b37ba34b733aa37b5b2b760a91b8152506040518060400160405280600381526020016256544b60e81b81525081600390816200009e919062000517565b506004620000ad828262000517565b5050506001600160a01b038116620000df57604051631e4fbdf760e01b81525f60048201526024015b60405180910390fd5b620000ea8162000165565b50620001013069010f0cf064dd59200000620001b6565b600a80546001600160a01b0319166001600160a01b03831690811790915560088054610100600160a81b03191661010083021790556040517f7e1c73aad4a02ef9b4d38040fd7df4fb312b52c50a83d2c451381f1dfd2b308a905f90a25062000605565b600580546001600160a01b038381166001600160a01b0319831681179093556040519116919082907f8be0079c531659141344cd1fd0a4f28419497f9722a3daafe3b4186f6b6457e0905f90a35050565b6001600160a01b038216620001e15760405163ec442f0560e01b81525f6004820152602401620000d6565b620001ee5f8383620001f2565b5050565b6001600160a01b038316158015906200021357506001600160a01b03821615155b1562000308576005546001600160a01b03848116911614806200024357506005546001600160a01b038381169116145b806200025757506001600160a01b03831630145b806200026b57506001600160a01b03821630145b620002b95760405162461bcd60e51b815260206004820152601d60248201527f546f6b656e20746964616b2064617061742064697472616e736665722e0000006044820152606401620000d6565b816001600160a01b0316836001600160a01b03167f11fa32abca54cea9e42543564c8e59c2f3a9746185b0ec8862fd61fc7488ee0683604051620002ff91815260200190565b60405180910390a35b620003158383836200031a565b505050565b6001600160a01b03831662000348578060025f8282546200033c9190620005df565b90915550620003ba9050565b6001600160a01b0383165f90815260208190526040902054818110156200039c5760405163391434e360e21b81526001600160a01b03851660048201526024810182905260448101839052606401620000d6565b6001600160a01b0384165f9081526020819052604090209082900390555b6001600160a01b038216620003d857600280548290039055620003f6565b6001600160a01b0382165f9081526020819052604090208054820190555b816001600160a01b0316836001600160a01b03167fddf252ad1be2c89b69c2b068fc378daa952ba7f163c4a11628f55a4df523b3ef836040516200043c91815260200190565b60405180910390a3505050565b5f602082840312156200045a575f80fd5b81516001600160a01b038116811462000471575f80fd5b9392505050565b634e487b7160e01b5f52604160045260245ffd5b600181811c90821680620004a157607f821691505b602082108103620004c057634e487b7160e01b5f52602260045260245ffd5b50919050565b601f82111562000315575f81815260208120601f850160051c81016020861015620004ee5750805b601f850160051c820191505b818110156200050f57828155600101620004fa565b505050505050565b81516001600160401b0381111562000533576200053362000478565b6200054b816200054484546200048c565b84620004c6565b602080601f83116001811462000581575f8415620005695750858301515b5f19600386901b1c1916600185901b1785556200050f565b5f85815260208120601f198616915b82811015620005b15788860151825594840194600190910190840162000590565b5085821015620005cf57878501515f19600388901b60f8161c191681555b5050505050600190811b01905550565b80820180821115620005ff57634e487b7160e01b5f52601160045260245ffd5b92915050565b61108e80620006135f395ff3fe608060405234801561000f575f80fd5b5060043610610153575f3560e01c8063873f6f9e116100bf578063b2cda2f611610079578063b2cda2f6146102ef578063c9d705b4146102f8578063d4a6a2fd1461030b578063dd62ed3e14610318578063e6e3946d14610350578063f2fde38b14610363575f80fd5b8063873f6f9e146102705780638da5cb5b1461029d57806395d89b41146102ae57806399af3b4e146102b6578063a9059cbb146102c9578063b1c7ef0c146102dc575f80fd5b8063313ce56711610110578063313ce567146101e55780633edabc7a146101f457806370720b951461022457806370a0823114610237578063715018a61461025f578063830953ab14610267575f80fd5b806306fdde0314610157578063095ea7b3146101755780631795dcec1461019857806318160ddd146101ad57806318868455146101bf57806323b872dd146101d2575b5f80fd5b61015f610376565b60405161016c9190610e6e565b60405180910390f35b610188610183366004610ed4565b610406565b604051901515815260200161016c565b6101ab6101a6366004610efc565b61041f565b005b6002545b60405190815260200161016c565b6101ab6101cd366004610f29565b6104d8565b6101886101e0366004610f44565b610527565b6040516012815260200161016c565b60085461020c9061010090046001600160a01b031681565b6040516001600160a01b03909116815260200161016c565b6101ab610232366004610f7d565b61054a565b6101b1610245366004610efc565b6001600160a01b03165f9081526020819052604090205490565b6101ab6107e6565b6101b160065481565b61018861027e366004610f94565b600760209081525f928352604080842090915290825290205460ff1681565b6005546001600160a01b031661020c565b61015f6107f9565b6101ab6102c4366004610ed4565b610808565b6101886102d7366004610ed4565b6108ac565b6101ab6102ea366004610f7d565b6108b9565b6101b160095481565b6101ab610306366004610f7d565b6108c6565b6008546101889060ff1681565b6101b1610326366004610fbe565b6001600160a01b039182165f90815260016020908152604080832093909416825291909152205490565b600a5461020c906001600160a01b031681565b6101ab610371366004610efc565b6109bc565b60606003805461038590610fe6565b80601f01602080910402602001604051908101604052809291908181526020018280546103b190610fe6565b80156103fc5780601f106103d3576101008083540402835291602001916103fc565b820191905f5260205f20905b8154815290600101906020018083116103df57829003601f168201915b5050505050905090565b5f336104138185856109f9565b60019150505b92915050565b610427610a0b565b6001600160a01b0381166104785760405162461bcd60e51b815260206004820152601360248201527220b630b6b0ba103a34b230b5903b30b634b21760691b60448201526064015b60405180910390fd5b600a80546001600160a01b0319166001600160a01b03831690811790915560088054610100600160a81b03191661010083021790556040517f7e1c73aad4a02ef9b4d38040fd7df4fb312b52c50a83d2c451381f1dfd2b308a905f90a250565b6104e0610a0b565b6008805460ff19168215159081179091556040519081527f0ea6d908123142455783f75e44b94efc09959f5d0e069c4ba0c93b7605fe12519060200160405180910390a150565b5f33610534858285610a38565b61053f858585610ab4565b506001949350505050565b60085460ff166105935760405162461bcd60e51b815260206004820152601460248201527325b630b4b6903234b737b730b5ba34b335b0b71760611b604482015260640161046f565b60095481146105dd5760405162461bcd60e51b81526020600482015260166024820152752b37ba34b7339024a2103a34b230b59030b5ba34b31760511b604482015260640161046f565b5f81815260076020908152604080832033845290915290205460ff161561065b5760405162461bcd60e51b815260206004820152602c60248201527f416e6461207375646168206d656e676b6c61696d20746f6b656e20756e74756b60448201526b103b37ba34b7339034b7349760a11b606482015260840161046f565b60085460405163394eaa8f60e01b8152600481018390523360248201526101009091046001600160a01b03169063394eaa8f90604401602060405180830381865afa1580156106ac573d5f803e3d5ffd5b505050506040513d601f19601f820116820180604052508101906106d0919061101e565b61071c5760405162461bcd60e51b815260206004820152601d60248201527f416e64612062756b616e2070656d696c6968207465726461667461722e000000604482015260640161046f565b600654305f90815260208190526040902054101561076b5760405162461bcd60e51b815260206004820152600c60248201526b2a37b5b2b7103430b134b99760a11b604482015260640161046f565b5f818152600760209081526040808320338085529252909120805460ff1916600117905560065461079d913091610ab4565b80336001600160a01b03167feb63d5dbb2b8b64567245d9ff2bd16afbadd939ab9f72933a2a545c9183d358f6006546040516107db91815260200190565b60405180910390a350565b6107ee610a0b565b6107f75f610b11565b565b60606004805461038590610fe6565b610810610a0b565b60085460ff166108595760405162461bcd60e51b815260206004820152601460248201527325b630b4b6903234b737b730b5ba34b335b0b71760611b604482015260640161046f565b5f8181526007602090815260408083206001600160a01b0386168085529252808320805460ff191690555183927e180ff6e3d36bfd5eee25c91a9fe377af813646a650fd10d5d7a6868f612c2591a35050565b5f33610413818585610ab4565b6108c1610a0b565b600655565b600a546001600160a01b0316331461093b5760405162461bcd60e51b815260206004820152603260248201527f48616e79612045566f74696e672079616e67206461706174206d656e6761747560448201527139103b37ba34b7339024a21030b5ba34b31760711b606482015260840161046f565b5f811161098a5760405162461bcd60e51b815260206004820152601d60248201527f566f74696e67204944206861727573206c65626968206461726920302e000000604482015260640161046f565b600981905560405181907f203050b00a3e19904d566a92fd95359fa0074b58811e3f67877537166027aec7905f90a250565b6109c4610a0b565b6001600160a01b0381166109ed57604051631e4fbdf760e01b81525f600482015260240161046f565b6109f681610b11565b50565b610a068383836001610b62565b505050565b6005546001600160a01b031633146107f75760405163118cdaa760e01b815233600482015260240161046f565b6001600160a01b038381165f908152600160209081526040808320938616835292905220545f19811015610aae5781811015610aa057604051637dc7a0d960e11b81526001600160a01b0384166004820152602481018290526044810183905260640161046f565b610aae84848484035f610b62565b50505050565b6001600160a01b038316610add57604051634b637e8f60e11b81525f600482015260240161046f565b6001600160a01b038216610b065760405163ec442f0560e01b81525f600482015260240161046f565b610a06838383610c34565b600580546001600160a01b038381166001600160a01b0319831681179093556040519116919082907f8be0079c531659141344cd1fd0a4f28419497f9722a3daafe3b4186f6b6457e0905f90a35050565b6001600160a01b038416610b8b5760405163e602df0560e01b81525f600482015260240161046f565b6001600160a01b038316610bb457604051634a1406b160e11b81525f600482015260240161046f565b6001600160a01b038085165f9081526001602090815260408083209387168352929052208290558015610aae57826001600160a01b0316846001600160a01b03167f8c5be1e5ebec7d5bd14f71427d1e84f3dd0314c0f7b2291e5b200ac8c7c3b92584604051610c2691815260200190565b60405180910390a350505050565b6001600160a01b03831615801590610c5457506001600160a01b03821615155b15610d42576005546001600160a01b0384811691161480610c8257506005546001600160a01b038381169116145b80610c9557506001600160a01b03831630145b80610ca857506001600160a01b03821630145b610cf45760405162461bcd60e51b815260206004820152601d60248201527f546f6b656e20746964616b2064617061742064697472616e736665722e000000604482015260640161046f565b816001600160a01b0316836001600160a01b03167f11fa32abca54cea9e42543564c8e59c2f3a9746185b0ec8862fd61fc7488ee0683604051610d3991815260200190565b60405180910390a35b610a068383836001600160a01b038316610d72578060025f828254610d679190611039565b90915550610de29050565b6001600160a01b0383165f9081526020819052604090205481811015610dc45760405163391434e360e21b81526001600160a01b0385166004820152602481018290526044810183905260640161046f565b6001600160a01b0384165f9081526020819052604090209082900390555b6001600160a01b038216610dfe57600280548290039055610e1c565b6001600160a01b0382165f9081526020819052604090208054820190555b816001600160a01b0316836001600160a01b03167fddf252ad1be2c89b69c2b068fc378daa952ba7f163c4a11628f55a4df523b3ef83604051610e6191815260200190565b60405180910390a3505050565b5f6020808352835180828501525f5b81811015610e9957858101830151858201604001528201610e7d565b505f604082860101526040601f19601f8301168501019250505092915050565b80356001600160a01b0381168114610ecf575f80fd5b919050565b5f8060408385031215610ee5575f80fd5b610eee83610eb9565b946020939093013593505050565b5f60208284031215610f0c575f80fd5b610f1582610eb9565b9392505050565b80151581146109f6575f80fd5b5f60208284031215610f39575f80fd5b8135610f1581610f1c565b5f805f60608486031215610f56575f80fd5b610f5f84610eb9565b9250610f6d60208501610eb9565b9150604084013590509250925092565b5f60208284031215610f8d575f80fd5b5035919050565b5f8060408385031215610fa5575f80fd5b82359150610fb560208401610eb9565b90509250929050565b5f8060408385031215610fcf575f80fd5b610fd883610eb9565b9150610fb560208401610eb9565b600181811c90821680610ffa57607f821691505b60208210810361101857634e487b7160e01b5f52602260045260245ffd5b50919050565b5f6020828403121561102e575f80fd5b8151610f1581610f1c565b8082018082111561041957634e487b7160e01b5f52601160045260245ffdfea26469706673582212202dbf68ebc2393795203028d8f34bea0c52f56c069dc0202025140e441f0a8f0664736f6c63430008140033",
  "immutableReferences": {},
  "source": "// SPDX-License-Identifier: MIT\r\npragma solidity ^0.8.20;\r\n\r\nimport \"@openzeppelin/contracts/token/ERC20/ERC20.sol\";\r\nimport \"@openzeppelin/contracts/access/Ownable.sol\";\r\n\r\ninterface IEVoting {\r\n    function isVoterRegistered(uint votingId, address voter) external view returns (bool);\r\n}\r\n\r\ncontract VotingToken is ERC20, Ownable {\r\n    uint256 public claimAmount = 1 * 10 ** 18; // 1 token (1 VTK)\r\n    mapping(uint => mapping(address => bool)) public hasClaimed; // Klaim per votingId\r\n    bool public claimActive = true;\r\n    IEVoting public eVotingContract;\r\n    uint public activeVotingId;\r\n    address public eVotingAddress; // Alamat kontrak EVoting\r\n\r\n    event ClaimedVotingToken(address indexed user, uint indexed votingId, uint256 amount);\r\n    event ClaimStatusChanged(bool status);\r\n    event TransferRestricted(address indexed from, address indexed to, uint256 amount);\r\n    event ClaimReset(address indexed user, uint indexed votingId);\r\n    event EVotingContractSet(address indexed eVotingContract);\r\n    event ActiveVotingIdSet(uint indexed votingId);\r\n\r\n    constructor(address _eVotingContract) ERC20(\"VotingToken\", \"VTK\") Ownable(msg.sender) {\r\n        _mint(address(this), 5000 * 10 ** 18); // Fixed supply: 5000 VTK\r\n        eVotingAddress = _eVotingContract;\r\n        eVotingContract = IEVoting(_eVotingContract);\r\n        emit EVotingContractSet(_eVotingContract);\r\n    }\r\n\r\n    function setEVotingContract(address _eVotingContract) public onlyOwner {\r\n        require(_eVotingContract != address(0), \"Alamat tidak valid.\");\r\n        eVotingAddress = _eVotingContract;\r\n        eVotingContract = IEVoting(_eVotingContract);\r\n        emit EVotingContractSet(_eVotingContract);\r\n    }\r\n\r\n    function setActiveVotingId(uint _votingId) external {\r\n        require(msg.sender == eVotingAddress, \"Hanya EVoting yang dapat mengatur voting ID aktif.\");\r\n        require(_votingId > 0, \"Voting ID harus lebih dari 0.\");\r\n        activeVotingId = _votingId;\r\n        emit ActiveVotingIdSet(_votingId);\r\n    }\r\n\r\n    function claimVotingTokens(uint _votingId) public {\r\n        require(claimActive, \"Klaim dinonaktifkan.\");\r\n        require(_votingId == activeVotingId, \"Voting ID tidak aktif.\");\r\n        require(!hasClaimed[_votingId][msg.sender], \"Anda sudah mengklaim token untuk voting ini.\");\r\n        require(eVotingContract.isVoterRegistered(_votingId, msg.sender), \"Anda bukan pemilih terdaftar.\");\r\n        require(balanceOf(address(this)) >= claimAmount, \"Token habis.\");\r\n\r\n        hasClaimed[_votingId][msg.sender] = true;\r\n        _transfer(address(this), msg.sender, claimAmount);\r\n\r\n        emit ClaimedVotingToken(msg.sender, _votingId, claimAmount);\r\n    }\r\n\r\n    function _update(address from, address to, uint256 amount) internal override {\r\n        if (from != address(0) && to != address(0)) {\r\n            require(from == owner() || to == owner() || from == address(this) || to == address(this), \"Token tidak dapat ditransfer.\");\r\n            emit TransferRestricted(from, to, amount);\r\n        }\r\n        super._update(from, to, amount);\r\n    }\r\n\r\n    function toggleClaim(bool status) public onlyOwner {\r\n        claimActive = status;\r\n        emit ClaimStatusChanged(status);\r\n    }\r\n\r\n    function resetClaimStatus(address user, uint _votingId) public onlyOwner {\r\n        require(claimActive, \"Klaim dinonaktifkan.\");\r\n        hasClaimed[_votingId][user] = false;\r\n        emit ClaimReset(user, _votingId);\r\n    }\r\n\r\n    function setClaimAmount(uint256 _claimAmount) public onlyOwner {\r\n        claimAmount = _claimAmount;\r\n    }\r\n}",
  "sourcePath": "C:\\Users\\ASUS\\Documents\\TUGAS AKHIR\\truffle\\contracts\\VotingToken.sol",
  "compiler": {
    "name": "solc",
    "version": "0.8.20+commit.a1b79de6.Emscripten.clang"
  },
  "schemaVersion": "3.4.13",
  "updatedAt": "2025-05-23T14:10:45.271Z",
  "networkType": "ethereum",
  "devdoc": {
    "errors": {
      "ERC20InsufficientAllowance(address,uint256,uint256)": [
        {
          "details": "Indicates a failure with the `spender`s `allowance`. Used in transfers.",
          "params": {
            "allowance": "Amount of tokens a `spender` is allowed to operate with.",
            "needed": "Minimum amount required to perform a transfer.",
            "spender": "Address that may be allowed to operate on tokens without being their owner."
          }
        }
      ],
      "ERC20InsufficientBalance(address,uint256,uint256)": [
        {
          "details": "Indicates an error related to the current `balance` of a `sender`. Used in transfers.",
          "params": {
            "balance": "Current balance for the interacting account.",
            "needed": "Minimum amount required to perform a transfer.",
            "sender": "Address whose tokens are being transferred."
          }
        }
      ],
      "ERC20InvalidApprover(address)": [
        {
          "details": "Indicates a failure with the `approver` of a token to be approved. Used in approvals.",
          "params": {
            "approver": "Address initiating an approval operation."
          }
        }
      ],
      "ERC20InvalidReceiver(address)": [
        {
          "details": "Indicates a failure with the token `receiver`. Used in transfers.",
          "params": {
            "receiver": "Address to which tokens are being transferred."
          }
        }
      ],
      "ERC20InvalidSender(address)": [
        {
          "details": "Indicates a failure with the token `sender`. Used in transfers.",
          "params": {
            "sender": "Address whose tokens are being transferred."
          }
        }
      ],
      "ERC20InvalidSpender(address)": [
        {
          "details": "Indicates a failure with the `spender` to be approved. Used in approvals.",
          "params": {
            "spender": "Address that may be allowed to operate on tokens without being their owner."
          }
        }
      ],
      "OwnableInvalidOwner(address)": [
        {
          "details": "The owner is not a valid owner account. (eg. `address(0)`)"
        }
      ],
      "OwnableUnauthorizedAccount(address)": [
        {
          "details": "The caller account is not authorized to perform an operation."
        }
      ]
    },
    "events": {
      "Approval(address,address,uint256)": {
        "details": "Emitted when the allowance of a `spender` for an `owner` is set by a call to {approve}. `value` is the new allowance."
      },
      "Transfer(address,address,uint256)": {
        "details": "Emitted when `value` tokens are moved from one account (`from`) to another (`to`). Note that `value` may be zero."
      }
    },
    "kind": "dev",
    "methods": {
      "allowance(address,address)": {
        "details": "See {IERC20-allowance}."
      },
      "approve(address,uint256)": {
        "details": "See {IERC20-approve}. NOTE: If `value` is the maximum `uint256`, the allowance is not updated on `transferFrom`. This is semantically equivalent to an infinite approval. Requirements: - `spender` cannot be the zero address."
      },
      "balanceOf(address)": {
        "details": "See {IERC20-balanceOf}."
      },
      "decimals()": {
        "details": "Returns the number of decimals used to get its user representation. For example, if `decimals` equals `2`, a balance of `505` tokens should be displayed to a user as `5.05` (`505 / 10 ** 2`). Tokens usually opt for a value of 18, imitating the relationship between Ether and Wei. This is the default value returned by this function, unless it's overridden. NOTE: This information is only used for _display_ purposes: it in no way affects any of the arithmetic of the contract, including {IERC20-balanceOf} and {IERC20-transfer}."
      },
      "name()": {
        "details": "Returns the name of the token."
      },
      "owner()": {
        "details": "Returns the address of the current owner."
      },
      "renounceOwnership()": {
        "details": "Leaves the contract without owner. It will not be possible to call `onlyOwner` functions. Can only be called by the current owner. NOTE: Renouncing ownership will leave the contract without an owner, thereby disabling any functionality that is only available to the owner."
      },
      "symbol()": {
        "details": "Returns the symbol of the token, usually a shorter version of the name."
      },
      "totalSupply()": {
        "details": "See {IERC20-totalSupply}."
      },
      "transfer(address,uint256)": {
        "details": "See {IERC20-transfer}. Requirements: - `to` cannot be the zero address. - the caller must have a balance of at least `value`."
      },
      "transferFrom(address,address,uint256)": {
        "details": "See {IERC20-transferFrom}. Skips emitting an {Approval} event indicating an allowance update. This is not required by the ERC. See {xref-ERC20-_approve-address-address-uint256-bool-}[_approve]. NOTE: Does not update the allowance if the current allowance is the maximum `uint256`. Requirements: - `from` and `to` cannot be the zero address. - `from` must have a balance of at least `value`. - the caller must have allowance for ``from``'s tokens of at least `value`."
      },
      "transferOwnership(address)": {
        "details": "Transfers ownership of the contract to a new account (`newOwner`). Can only be called by the current owner."
      }
    },
    "version": 1
  },
  "userdoc": {
    "kind": "user",
    "methods": {},
    "version": 1
  }
}